:04000000803114280F
:100008007E1480314E01961E0A280B2812288C1E59
:100018000E280F2812288631D42680317E10090038
:1000280080311628873106278031EE005130840050
:100038000030850015308631E42680317E1040017D
:100048008131D029400127088039B1002735B8000F
:10005800A61F2F28302831283814380803193528C6
:1000680036284628380A031D3A283B2843280030FA
:10007800A7000030A6000030A5000030A400A61795
:10008800A7014E280030A7000030A6000030A500C8
:100098000030A40023088039A8002808B1062335B9
:1000A800B900A21F582859285A28391439080319A1
:1000B8005E285F286F28390A031D632864286C2886
:1000C8000030A3000030A2000030A1000030A000E2
:1000D800A217A30177280030A3000030A200003047
:1000E800A1000030A0002308220421042004031DDD
:1000F8007E287F2898280030A7000030A60000300E
:10010800A5000030A4008030A6047F30A704310881
:10011800A8002808A7042708A3002608A200250885
:10012800A1002408A000CF293808031D9C289D2879
:10013800A6280030A3000030A2000030A100003043
:10014800A000CF293808A800A9012908AB00390860
:100158002802AA00031CAB032A087F3EB200003025
:100168002B3DB3002708B0002608AF002508AE00D5
:100178002408AD000030A7000030A6000030A5001C
:100188000030A4000030B7000030B6000030B500E1
:100198000030B400B9010E2939080319D428D5282C
:1001A800EF280130AD35AE0DAF0DB00D890BD62857
:1001B8000130A435A50DA60DA70D890BDD28B71FA5
:1001C800E628E728E82824140130B435B50DB60D23
:1001D800B70D890BE92823083002031DFD282208E2
:1001E8002F02031DFD2821082E02031DFD282008CB
:1001F8002D02031C002901290A2937172008AD02FE
:100208002108AE3B2208AF3B2308B03B0130A800D1
:100218002808B9071A303902031C13291429D028D1
:1002280030082F042E042D0403191B291C293529F5
:10023800341435290130A435A50DA60DA70D890B59
:100248001F29B71F282929292A2924140130B43540
:10025800B50DB60DB70D890B2B29FF30B207FF304E
:10026800B33DA61F382939291E29B901B71F3D29D1
:100278003E295A29FF303405A800FF303505A9006A
:10028800FF303605AA007F303705AB002B082A045B
:10029800290428040319512952295529B901B90AF1
:1002A8005A29241C582959295A2952293908031925
:1002B8005E295F2987290130A4070030A53D003059
:1002C800A63D0030A73D271C6A296B2987292408E9
:1002D800A8002508A9002608AA002708AB000130B5
:1002E800AC00AB37AA0CA90CA80CAC0B75292B08D1
:1002F800A7002A08A6002908A5002808A40001309C
:10030800B2070030B33D3308803AA8008030280295
:10031800031D9029FF303202031C93299429A12937
:10032800FF304001B2000030B3000030A7000030B9
:10033800A6000030A5000030A40040013308803A30
:10034800A80080302802031DAB29013032020318AF
:10035800AE29AF29BB294001B201B3010030A70083
:100368000030A6000030A5000030A400B101400113
:100378003208B800381CC129C229C429A617C829BF
:100388007F30A8002808A6053836A7003108A8003D
:100398002808A7048F2808008531D12581318B17BB
:1003A8000B175830863124268131003040018E19D0
:1003B8000130D0004E010F1EE229E329F3295830FD
:1003C8008631DD268131003A0319EB29EC29F3291E
:1003D80058308431D12481318631C12681314001A0
:1003E80057080319F829F929D9299A1602308631AC
:1003F8007D26813171084001C9007008C80010309D
:1004080086317D26813171084001CD007008CC000D
:10041800113086317D26813171084001C500700890
:10042800C400123086317D26813171084001C70031
:100438007008C6004508F9004408F80058308331B0
:10044800622381310430F3008730F400583084315E
:100458006524813140014708F9004608F800583002
:100468008331622381310230F3008730F400583041
:1004780084316524813140015008031D442A452AEE
:10048800B22A4808F0004908F100F201F3010030EF
:100498008231B822813173084001A7007208A60092
:1004A8007108A5007008A4004130A3002330A20001
:1004B8003330A1003330A000803126208131400143
:1004C8002308BD002208BC002108BB002008BA0090
:1004D8008331F423813140013B08CB003A08CA003C
:1004E8004B08F1004A08F00086315326813140015B
:1004F8004C08F0004D08F100F201F30100308231A0
:10050800B822813173084001A7007208A60071085B
:10051800A5007008A4004130A3002330A2003330A6
:10052800A1003330A000803126208131400123080A
:10053800BD002208BC002108BB002008BA00833196
:10054800F423813140013B08CF003A08CE004F0820
:10055800F1004E08F00086313D2681314001D70177
:100568009A12D92980311428F80078080319BD2A6D
:10057800BE2AD22AF31FC12AC22AD22A7009FA0037
:100588007109FB007209FC007309FD00FA0A0319DE
:10059800FB0A0319FC0A0319FD0ADA2A7308FD008D
:1005A8007208FC007108FB007008FA0073087204F6
:1005B80071047004031DE12AE22AEB2A0030F300DB
:1005C8000030F2000030F1000030F000612B96306E
:1005D800F900F92A0130F4007408F9070130FD36F2
:1005E800FC0CFB0CFA0C890BF32AFE307D05031D6D
:1005F800FE2AFF2AEE2A132B0130F4007408F907AB
:100608000130FA070030FB3D0030FC3D0030FD3D75
:100618000130FD36FC0CFB0CFA0C890B0D2BFF305E
:100628007D05031D182B192B002B232B0130F902F4
:100638000130FA35FB0DFC0DFD0D890B1D2BFC1B44
:10064800262B272B2D2B0230790203182C2B2D2B30
:100658001A2B7918302B312B392BFF30FA05FF3044
:10066800FB057F30FC05FF30FD050310F90C790808
:10067800F400F501F601F7011830F435F50DF60D23
:10068800F70D890B412B7408FA047508FB047608EA
:10069800FC047708FD0478080319532B542B592BB5
:1006A800F31F572B582B592BFD177D08F3007C0897
:1006B800F2007B08F1007A08F00008004001AB0066
:1006C8007908AA007808A900203086000030870041
:1006D8000530FA0000301E00FA0B6F2BA801A501A7
:1006E80029082A04031D792B7A2B7B2BD72B0A3058
:1006F800F0000030F1002A08F3002908F2008531E3
:100708005C25833171084001A7007008A6000A30F3
:10071800F0000030F1002A08F3002908F2008531C2
:100728002025833171084001AA007008A900280813
:10073800203E860087012608303E81000130FA00FD
:100748007A08A8070130FA007A08A507742B2B0845
:100758000A3E860087010108860087012808FF3EB7
:10076800203E84008501000881002B080A3EF00025
:100778002B0886310926833140012B080B3E860061
:1007880087012B080A3E8400850100080106031D25
:10079800CE2BCF2BD52B2B080D3E86008701810150
:1007A800D72B0130A8022B080B3E860087012B08A7
:1007B8000A3E8400850100080106031DE42BE52B91
:1007C800EE2B2B080D3E8600870101080319ED2B3F
:1007D800EE2BF32B2808031DF22BF32BAB2B080071
:1007E800031040013C0D3D0DC3004308031DFD2BC4
:1007F800FE2B072C0030BD000030BC000030BB00D1
:100808000030BA00642C3A08BE003B08BF003C0820
:10081800C0003D08C1001F30C136C00CBF0CBE0C63
:10082800890B102C3E08C200BC17FF30BA05FF30F8
:10083800BB05FF30BC050030BD059630C302C31FA1
:10084800262C272C3F2C4308803A973E03182D2C42
:100858002E2C2F2CFE2B0130BD36BC0CBB0CBA0C39
:10086800890B302C0130BE003E08C307031D3D2C08
:100878003E2C2F2C542C20304302031C442C452C96
:100888004F2CFE2B0130BA35BB0DBC0DBD0D890BAD
:10089800472C0130C3024308031D532C542C462C0B
:1008A80042080319582C592C642CBA09BB09BC09F5
:1008B800BD09BA0A0319BB0A0319BC0A0319BD0A00
:1008C8000800F900F8018D2C79080A3E8600870196
:1008D8000108860087017408F6007308F500780897
:1008E8007507840076080318760A850000088100D9
:1008F8000130F5007508F80779080A3EF000790814
:1009080086310926843179080C3E860087018101E9
:10091800810A79080B3E8600870179080A3E84001F
:10092800850100080106031D9A2C9B2CA42C79082C
:100938000D3E8600870101080319A32CA42CB42CB2
:100948007408F6007308F5007808750784007608BF
:100958000318760A85001200031DB32CB42C682CEA
:1009680079080B3E8600870179080A3E84008501D4
:1009780000080106031DC12CC22CD02C79080D3E9D
:10098800860087010103031DCA2CCB2CD02C7908C3
:100998000D3E8600870181010800F4002030F30035
:1009A80074080B3E8600870174080A3E840085019E
:1009B80000080106031DE12CE22CEB2C74080D3E07
:1009C800860087010108031DEA2CEB2CFC2C740817
:1009D8000B3E860087010108860087010108F300A5
:1009E80074080B3EF0007408863109268431012D05
:1009F80074080C3E86008701810174080B3E86004E
:100A0800870174080A3E8400850100080106031D59
:100A18000E2D0F2D1E2D74080D3E8600870101082E
:100A2800031D172D182D1E2D74080D3E86008701F5
:100A38008101810A73080800F501F6017008710444
:100A48000319272D282D572DF701F70A342D0130CA
:100A5800F035F10D890B2C2D0130F4007408F707DF
:100A6800F11F372D382D2B2D0130F535F60D890B5B
:100A7800392D71087302031D432D70087202031C7F
:100A8800462D472D4C2D7008F2027108F33B751462
:100A98000130F136F00C890B4D2D0130F702031DA2
:100AA800562D572D382D7608F1007508F0000800EE
:100AB800700871040319612D622D8B2DF501F50A5B
:100AC8006E2D0130F035F10D890B662D0130F400E3
:100AD8007408F507F11F712D722D652D71087302C9
:100AE800031D782D70087202031C7B2D7C2D802D30
:100AF8007008F2027108F33B0130F136F00C890BF3
:100B0800812D0130F502031D8A2D8B2D722D73085E
:100B1800F1007208F0000800083042019F008030A0
:100B28009D0024309E0010309B009C010030F00096
:100B38000030F1008631F62685310030F0000030B3
:100B4800F1008631F02685310030F0000030F100E8
:100B58008631FC2685314001D60108004001980104
:100B68009A010F3092000F30940007307E01CE00BA
:100B78003730B800B901CF01BA01D0013730BB0016
:100B88003F30D1003F30BC003F30D2000E309400DF
:100B98000F30A4000D30950008008631B726853146
:100BA8008531B22585318631CB2685318631AA2615
:100BB80085318531ED25853186318F268531863120
:100BC8009D26853186316926853185319025853187
:100BD800080041018C018D018E018F019201930162
:100BE80098019A019F0142018C018D018E018F01AC
:100BF80090010130920093019401950196019701AB
:100C08000B309800C43091000800F20009307207D8
:100C1800F10070088600870101087106031D152E72
:100C2800162E1C2E70088600870172088100232E5C
:100C38000130F100700886008701710881070800FB
:100C4800F00070080A3E860087017008810070086D
:100C58000B3E860087017008810070080C3E8600F4
:100C68008701810170080D3E860087018101810A94
:100C780008007108F3007008F200F336F20CF3363E
:100C8800F20C72084701910070080339F200053030
:100C9800F235FF3E031D4C2E723590000800710896
:100CA800F3007008F200F336F20CF336F20C720817
:100CB80047018D0070080339F2000530F235FF3E18
:100CC800031D622E72358C00080046304B019F00D0
:100CD800DA309D009C014E018C1296160030F0000F
:100CE8000030F1008631EA26863180304B019E00C3
:100CF8000800F200720841019F0042019117111388
:100D080011141118882E892E852E41011E08F10014
:100D18001D08F00008000130450190008F01910185
:100D280063308D008C014E019010803045018E009B
:100D3800080080304701920031309100C0309000A7
:100D480044011F08CF3910389F0008008030470140
:100D58008E0031308D00C0308C0044011F08F339FB
:100D680004389F0008004F019601970198019901E6
:100D78009A019B019C019D010800F0004E010F1E85
:100D8800C62EC72EC22E700842019A000800603095
:100D980051018D008F0191010330930092010800E9
:100DA8004E018C12DA304B019D004001D701D70A61
:100DB8000800F00070080C3E860087010108080052
:100DC800640080010131890BE52E0034710840016F
:100DD800ED007008EC00080071084001E900700897
:100DE800E800080071084001EB007008EA000800FC
:100DF80071084001E7007008E60008000A34003472
:060E08002C3400345834C4
:020000040001F9
:08000000FF3FFF3FFF3FFF3F00
:0A000E00EC3FFF3F9F3FFF3FFF3F25
:00000001FF
