:040000000DEF00F010
:040008006BEF0AF0A0
:06001800FF007DEF0AF07D
:0710000000024000030000A4
:1010080034EC0AF0D28E000E76EC08F0BC84BC9466
:10101800400E59EC0AF0070E59EC0AF0BC840F0494
:101028001010D8A41AEF08F01CEF08F013EF08F01E
:10103800000E106E000E0F6E060E206E05C021F019
:1010480006C022F007C023F008C024F020662FEF66
:1010580008F037EF08F024342432233222322132C8
:10106800202E2AEF08F021C00BF022C00CF0060E4B
:10107800206E01C021F002C022F003C023F004C09A
:1010880024F020664AEF08F052EF08F024342432A6
:10109800233222322132202E45EF08F021C009F0F8
:1010A80022C00AF0000E056E000E066E000E076ED6
:1010B800000E086E000E016E000E026E000E036E2A
:1010C800000E046E0C508CEC0AF00B508CEC0AF0FD
:1010D8000A508CEC0AF009508CEC0AF013EF08F077
:1010E8000DEF00F01F6E3D0114BF7DEF08F07FEF9C
:1010F80008F0E3EF08F01F50050D010EF324F66E1B
:10110800100EF420F76EF86A000EF82208006F003F
:10111800D7FF14FD1F50050D010EF326000EF42213
:10112800010EF324F66E100EF420F76EF86A000E26
:10113800F82208006F00D7FF15FD1F50050D020E9D
:10114800F326000EF422010EF324F66E100EF4209E
:10115800F76EF86A000EF8220800F5500309166FBA
:101168001F50050D030EF326000EF422010EF32482
:10117800F66E100EF420F76EF86A000EF8220800DA
:101188006F00D7FF19FD1F50050D040EF326000E42
:10119800F422010EF324F66E100EF420F76EF86AAE
:1011A800000EF82208006F00D4FF1EF01E461E46EF
:1011B8001E46C4501E18F70B1E18C46E148F12005A
:1011C8003901A49518EF09F0BD8E000E05EC0AF060
:1011D80017C013F018C014F0135005261450062237
:1011E800000E0722000E0822010E156E35EF09F0D9
:1011F800000E05EC0AF017C011F018C012F01150DB
:10120800012612500222000E0322000E0422020EB2
:10121800156E35EF09F0BD9E030E156E35EF09F01A
:10122800000E156E35EF09F015501C6E1D6A1D5025
:10123800000AD8B422EF09F035EF09F01C50000A73
:10124800D8B4E8EF08F0010AD8B4FCEF08F0030AB4
:10125800D8B40FEF09F0010AD8B414EF09F035EF4C
:1012680009F00EBE41EF09F00E5009E13F0E0D5C8A
:10127800D8A041EF09F043EF09F04DEF09F0000E57
:10128800106E010E0F6E000E0E6E000E0D6E4FEFFB
:1012980009F00D4A0E2A1200000EBE6E000EBD6E39
:1012A800000EBA6E000EBB6E000EBC6E070EC66E48
:1012B800C268C368930EC46E7F0EC56E3A0170692A
:1012C800670E606F5069070E806F4069000E716F7E
:1012D800000E816F000E516F000E416F000E616F9E
:1012E800000E5A6F000E5B6F000E6A6F000E6B6F78
:1012F800000E7A6F000E7B6F000E826F000E426F39
:10130800000E526F000E626F000E726F43695369D0
:1013180063697369070E836F446954696469746902
:101328000F0E846F130EDE6F1E0E136F1F0E156FD8
:10133800130E166F170EE56F140EDF6F1200000EF6
:101348003D01EC6F000EED6F000EEE6F000EEF6FBB
:10135800000EF06F000EF16FB00EF26F800EF36F9B
:10136800000EF46F070EF56F000EF66F000EF76FA4
:10137800000EF86F000EF96F000EFA6F000E1E6E69
:10138800000E1F6EB7EC0AF0000E1E6E000E1F6EE8
:10139800B2EC0AF0000E1E6E000E1F6EBCEC0AF0D6
:1013A800000E166E1200000E3E01DE6F000EDF6F9B
:1013B800000EE06F000EE16F000EE46F000EE56FA7
:1013C800000EEA6F000EEC6F000EF16F000EF36F67
:1013D800000EF46F000EF56F000EF66F000EF76F3B
:1013E800000EF96F000EFA6F000EFB6F000EFC6F17
:1013F800030EFD6F000EFE6F070EFF6F840EF86F71
:1014080012001B6E60006FF0F1FE3E01F88FF89D30
:10141800F881F8B112EF0AF014EF0AF00DEF0AF0B4
:10142800F0511A6E196AEF511924176E000E1A201E
:10143800186E1200010EAE6E000EAD6E000EAF6E8D
:10144800630EAB6E000EAA6E3901A4959485000E4A
:101458001E6E000E1F6EC1EC0AF0900EAC6E1200EC
:10146800CAEC0AF047EC0AF050EC09F0A6EC0AF0D6
:10147800C6EC0AF0D7EC09F01EEC0AF0A3EC09F070
:1014880099EC0AF01200000E3901C06F000EC16F0E
:10149800000EC26F000EC36F000EC46F000EC56F42
:1014A800000EC66F000EC76F12001E6E010E3D01C2
:1014B800126F60007BF011FD3901A2A966EF0AF0F6
:1014C80068EF0AF060EF0AF03D011051120039018F
:1014D80094A571EF0AF073EF0AF07CEF0AF0A4A567
:1014E80078EF0AF07AEF0AF07CEF0AF0E4EC08F003
:1014F800110000EE01F0160EEE6AE806FDE1080E96
:10150800D56E000ED66E000ED76E000104EF08F0FF
:101518001E6E3901A3A993EF0AF095EF0AF08DEF3B
:101528000AF060007BF0EAFD1200020E3D01146F24
:10153800400E156F000E166F000E1C6F030E196F0C
:10154800C4961200700E3901D96F000EDB6F000EC1
:10155800DD6F020EDF6F000EDE6F12001EC029F075
:101568001FC02AF012001EC02BF01FC02CF0120062
:101578001EC027F01FC028F012001EC025F01FC093
:1015880026F012008A0E3E01C16F1200D29A120094
:020000040020DA
:10000000FFFFFFFFFFFFFFFFFFFFFFFFFFFFFFFF00
:020000040030CA
:0A000000FAFFF7FF9FFFFFFFFFFF6D
:00000001FF
