:040000000DEF00F010
:0400080089EF0DF07F
:06001800FF00DFEF0CF019
:0710000000024000030000A4
:10100800000E316E000E326E000E336E000E346E1E
:10101800000E366E000E356E85EF08F035C01DF0F7
:1010280036C01EF0D8901D361E3618C01FF019C0E5
:1010380020F0D8901F3620361F501424216E2050DF
:101048001520226E1D50215C236E1E502258246EDE
:10105800FE0E2324D96EFF0E2420DA6E6F0078FF6F
:1010680025F06F0074FF26F025C027F026C028F071
:10107800000E28BEFF0E296E2A6ED8903534D96E20
:101088003634DA6E1450D9261550DA226F0078FFFC
:101098002BF06F0074FF2CF02BC02DF02CC02EF01D
:1010A800000E2EBEFF0E2F6E306E27502D24086EB8
:1010B80028502E20096E29502F200A6E2A503020E1
:1010C8000B6ED8903534D96E3634DA6E1650D92670
:1010D8001750DA226F0078FF0CF06F0074FF0DF0E4
:1010E800000E0DBEFF0E0E6E0F6E48EC0CF0085091
:1010F8003126095032220A5033220B503422354A05
:10110800362A1A50355C3650800A1D6E1B50800AEC
:101118001D58D8A092EF08F094EF08F012EF08F0ED
:101128001C04D8A49AEF08F09CEF08F0E2EF08F04E
:101138001AC01DF01BC01EF0D8901D361E361D505B
:1011480014241F6E1E501520206EFE0E1F24D96E0B
:10115800FF0E2020DA6E6F0078FF08F06F0074FF32
:1011680009F0000E09BEFF0E0A6E0B6E1AC021F0C0
:101178001BC022F0D8902136223621501624236E27
:1011880022501720246EFE0E2324D96EFF0E242031
:10119800DA6E6F0078FF0CF06F0074FF0DF0000E30
:1011A8000DBEFF0E0E6E0F6E48EC0CF00850315E4F
:1011B8000950325A0A50335A0B50345A33C014F07B
:1011C80034C015F0120052EC0DF0000E0001A26FB1
:1011D800000EA36F000EA46F000EA56FD28E000E36
:1011E800B2EC09F0BC84BC94400E77EC0DF0000E14
:1011F80077EC0DF0BC8420EE80F01F0EDE6AE80666
:10120800FDE220EE60F01F0EDE6AE806FDE2800EC9
:101218000001A66F000EA76FC80EA06F000EA16F89
:101228000001EA05EB11D8A41CEF09F01EEF09F044
:1012380014EF09F0BD8C000EEB6F000EEA6F060E7E
:10124800376EE0C038F0E1C039F0E2C03AF0E3C0F0
:101258003BF0376632EF09F03AEF09F03B343B32A6
:101268003A3239323832372E2DEF09F038C0E6F0ED
:1012780039C0E7F0060E376EDCC038F0DDC039F053
:10128800DEC03AF0DFC03BF037664DEF09F055EFAE
:1012980009F03B343B323A3239323832372E48EF94
:1012A80009F038C0E4F039C0E5F0000E0001E06F45
:1012B800000EE16F000EE26F000EE36F000EDC6FB0
:1012C800000EDD6F000EDE6F000EDF6FE6C080F0EF
:1012D800E7C081F0A6C014F0A7C015F0A0C016F0B2
:1012E800A1C017F0000E196E100E186E000E1B6EBE
:1012F800080E1A6E000E1C6E04EC08F014C0E8F01C
:1013080015C0E9F0A6C008F0A7C009F0000E0B6EE2
:10131800100E0A6E05EC0CF0E8C016F0E9C017F0E4
:10132800A20E186E000E196E20EC0AF00001A251F0
:101338009BEC0DF00001A3519BEC0DF00001A451B2
:101348009BEC0DF00001A5519BEC0DF00A0E9BECF7
:101358000DF0BD9C14EF09F00DEF00F0096E3D0192
:1013680014BFB9EF09F0BBEF09F01FEF0AF00950FD
:10137800050D010EF324F66E100EF420F76EF86AD0
:10138800000EF82208006F00D7FF14FD0950050D64
:10139800010EF326000EF422010EF324F66E100E51
:1013A800F420F76EF86A000EF82208006F00D7FFE5
:1013B80015FD0950050D020EF326000EF422010E4C
:1013C800F324F66E100EF420F76EF86A000EF82279
:1013D8000800F5500309166F0950050D030EF32692
:1013E800000EF422010EF324F66E100EF420F76EB0
:1013F800F86A000EF82208006F00D7FF19FD09509F
:10140800050D040EF326000EF422010EF324F66EE9
:10141800100EF420F76EF86A000EF82208006F002C
:10142800D4FF08F0084608460846C4500818F70BC9
:101438000818C46E148F120017BE27EF0AF025EFA4
:101448000AF02BEF0AF0166C171ED8B0172A16C030
:101458000EF017C00FF0030E116EE80E106EF8ECC8
:101468000AF00E50300F600063F0D9FF600067F09B
:10147800DAFFDF6E20EE01F01850D9261950DA2273
:10148800030E0B6EE80E0A6E16C008F017C009F0BE
:101498005AEC0BF008C00EF009C00FF0000E116EE8
:1014A800640E106EF8EC0AF00E50300FDF6E20EE6E
:1014B80002F01850D9261950DA22000E0B6E640E6D
:1014C8000A6E16C008F017C009F05AEC0BF008C0F5
:1014D8000EF009C00FF0000E116E0A0E106EF8EC37
:1014E8000AF00E50300FDF6E20EE03F01850D926A8
:1014F8001950DA2216C008F017C009F0000E0B6E5A
:101508000A0E0A6E5AEC0BF00850300FDF6E12000C
:101518003901A495C2EF0AF0BD8E040E0BEC0DF054
:1015280001C042F002C043F042500001E02743509E
:10153800E123000EE223000EE323010E486EDFEFE5
:101548000AF0000E0BEC0DF001C040F002C041F0B3
:1015580040500001DC274150DD23000EDE23000E41
:10156800DF23020E486EDFEF0AF0BD9E030E486EC1
:10157800DFEF0AF0000E486EDFEF0AF04850066E03
:10158800076A0750000AD8B4CCEF0AF0DFEF0AF078
:101598000650000AD8B490EF0AF0010AD8B4A5EFB3
:1015A8000AF0030AD8B4B9EF0AF0010AD8B4BEEFBA
:1015B8000AF0DFEF0AF03FBEE8EF0AF03F04D8A0D8
:1015C800E8EF0AF0EAEF0AF0F5EF0AF0000E000182
:1015D800EB6F010EEA6F000E3F6E000E3E6EF7EFE6
:1015E8000AF03E4A3F2A1200000E136E11BE01EFA8
:1015F8000BF0FFEF0AF007EF0BF0106C111ED8B0DC
:10160800112A010E136E0FBE0EEF0BF00CEF0BF04C
:1016180014EF0BF00E6C0F1ED8B00F2A010E131A20
:10162800000E156E000E146E10501110D8B41FEF76
:101638000BF021EF0BF049EF0BF0010E126E29EFC2
:101648000BF0D89010361136122A11AE2EEF0BF08F
:1016580030EF0BF025EF0BF0D890143615361050FC
:101668000E5C11500F58D8A03CEF0BF03EEF0BF07A
:1016780043EF0BF010500E5E11500F5A1480D890A3
:1016880011321032122E30EF0BF01350D8B44FEF46
:101698000BF051EF0BF055EF0BF0146C151ED8B092
:1016A800152A14C00EF015C00FF01200000E0D6EB2
:1016B80009BE63EF0BF061EF0BF069EF0BF0086CFC
:1016C800091ED8B0092A010E0D6E0BBE70EF0BF083
:1016D8006EEF0BF074EF0BF00A6C0B1ED8B00B2AF0
:1016E8000A500B10D8B47BEF0BF07DEF0BF0A1EF95
:1016F8000BF0010E0C6E85EF0BF0D8900A360B3606
:101708000C2A0BAE8AEF0BF08CEF0BF081EF0BF08D
:101718000A50085C0B500958D8A095EF0BF097EFCA
:101728000BF09BEF0BF00A50085E0B50095AD8904B
:101738000B320A320C2E8CEF0BF00D50D8B4A7EFF9
:101748000BF0A9EF0BF0ADEF0BF0086C091ED8B049
:10175800092A08C008F009C009F01200000EBE6E80
:10176800000EBD6E000EBA6E000EBB6E000EBC6E93
:10177800070EC66EC268C368930EC46E3F0EC56E70
:101788003A017069670E606F5069070E806F406993
:10179800000E716F000E816F000E516F000E416FC9
:1017A800000E616F000E5A6F000E5B6F000E6A6FBD
:1017B800000E6B6F000E7A6F000E7B6F000E826F4B
:1017C800000E426F000E526F000E626F000E726FB5
:1017D8004369536963697369070E836F4469546980
:1017E800646974690F0E846F130EDE6F1E0E136F1B
:1017F8001F0E156F130E166F170EE56F140EDF6FA1
:1018080012000AC00CF00BC00DF0D8900C360D3643
:101818000C5008240E6E0D5009200F6EFC0E0E247D
:10182800106EFF0E0F20116EFE0E0A24126EFF0EB0
:101838000B20136E13BE25EF0CF023EF0CF027EFEF
:101848000CF047EF0CF0600043F0D9FF600047F060
:10185800DAFF10EE02F01050E1261150E2226F007C
:101868007BFFE6FF6F0077FFE5FF020E105E000EBC
:10187800115A1206D8A0130613BE47EF0CF045EF15
:101888000CF027EF0CF01200000E106E000E116E17
:10189800000E126E000E136E08A055EF0CF057EFF5
:1018A8000CF05FEF0CF00C5010260D5011220E506A
:1018B80012220F501322D8900C360D360E360F36E2
:1018C800D8900B320A3209320832085009100A102F
:1018D8000B10D8A472EF0CF074EF0CF050EF0CF072
:1018E80010C008F011C009F012C00AF013C00BF0C4
:1018F8001200000E3D01EC6F000EED6F000EEE6F52
:10190800000EEF6F000EF06F000EF16FB00EF26F69
:10191800800EF36F000EF46F070EF56F000EF66F72
:10192800000EF76F000EF86F000EF96F000EFA6FD9
:10193800000E086E000E096EC6EC0DF0000E086E63
:10194800000E096EC1EC0DF0000E086E000E096E57
:10195800CBEC0DF0000E496E1200000E3E01DE6F5A
:10196800000EDF6F000EE06F000EE16F000EE46FF7
:10197800000EE56F000EEA6F000EEC6F000EF16FBF
:10198800000EF36F000EF46F000EF56F000EF66F89
:10199800000EF76F010EF96F000EFA6F000EFB6F65
:1019A800000EFC6F030EFD6F000EFE6F070EFF6F3B
:1019B800840EF86F1200480EF66E1A0EF76E000EBF
:1019C800F86E00EEA8F010EE30F009006F00D7FFB7
:1019D800EEFFE550E150F9E100EE00F1400EEE6A4D
:1019E800E806FDE100EED8F0150EEE6AE806FDE126
:1019F80000EE3CF00E0EEE6AE806FDE1080ED56E2C
:101A0800000ED66E000ED76E0001E7EF08F0056EE7
:101A1800600017F0F1FE3E01F88FF89DF881F8B1EB
:101A280018EF0DF01AEF0DF013EF0DF0F051046EF2
:101A3800036AEF510324016E000E0420026E1200A7
:101A480000000C0094FF3CFD64FC1C0A302D704F14
:101A5800704F302D1C0A64FC3CFD94FF0C00000004
:101A680000000C0094FF3CFD64FC1C0A302D704FF4
:101A7800010EAE6E000EAD6E000EAF6E630EAB6E55
:101A8800000EAA6E3901A4959485000E086E000E0A
:101A9800096ED0EC0DF0900EAC6E1200D9EC0DF082
:101AA80065EC0DF0B2EC0BF0B5EC0DF0D5EC0DF0EB
:101AB800B1EC0CF03CEC0DF07DEC0CF0A8EC0DF06A
:101AC8001200000E3901C06F000EC16F000EC26F08
:101AD800000EC36F000EC46F000EC56F000EC66FF8
:101AE800000EC76F1200086E010E3D01126F6000F4
:101AF80023F011FD3901A2A984EF0DF086EF0DF056
:101B08007EEF0DF03D0110511200390194A58FEFC1
:101B18000DF091EF0DF09AEF0DF0A4A596EF0DF0F2
:101B280098EF0DF09AEF0DF08CEC0AF01100086EAA
:101B38003901A3A9A2EF0DF0A4EF0DF09CEF0DF071
:101B4800600023F0EAFD1200020E3D01146F400E02
:101B5800156F000E166F000E1C6F030E196FC496DA
:101B68001200600E3901D96F000EDB6F000EDD6FB9
:101B7800050EDF6F000EDE6F120008C04EF009C0C0
:101B88004FF0120008C050F009C051F0120008C010
:101B98004CF009C04DF0120008C04AF009C04BF0E3
:0E1BA80012008A0E3E01C16F1200D29A120086
:020000040020DA
:10000000FFFFFFFFFFFFFFFFFFFFFFFFFFFFFFFF00
:020000040030CA
:0A000000ECFFF7FF9FFFFFFFFFFF7B
:00000001FF
