:040000000DEF00F010
:0400080072EF12F091
:06001800FF00E1EF13F010
:101000000002400003007265616456616C2E7661D7
:101010006C3D307800726566726573682E656E3D52
:10102000310061646420312C302C307800616464BC
:1010300020312C312C30780073696E2E76616C3D36
:10104000307800636F732E76616C3D307800726586
:1010500066207061676533007072696E7420647019
:101060000000B5EC16F0000E0101006F000E016FDC
:10107000000E026F000E036FD28E000E0A6E020E7B
:101080000B6ECCEC15F0000E98EC11F0BC84BC9407
:10109000400EDCEC16F00001A851DCEC16F0BC842C
:1010A00020EE04F11F0EDE6AE806FDE220EE24F1D8
:1010B0001F0EDE6AE806FDE2040E0101446F010E18
:1010C000456F240E466F010E476FCB0E486F010E21
:1010D000496F000E4D6F000E4C6F580E0B6E100EC8
:1010E0000C6E000E0E6E080E0D6E7AEC15F007EC0D
:1010F00017F0580E0B6E100E0C6E000E0E6E080ED2
:101100000D6E7AEC15F007EC17F0580E0B6E100E02
:101110000C6E000E0E6E080E0D6E7AEC15F007ECDC
:1011200017F0580E0B6E100E0C6E000E0E6E080EA1
:101130000D6E7AEC15F007EC17F00001A605A7116B
:10114000D8A4A5EF08F0A7EF08F089EF0DF0000E86
:10115000A76F000EA66F060EB36F8CC0B4F08DC0E3
:10116000B5F08EC0B6F08FC0B7F0B367BAEF08F035
:10117000C2EF08F0B735B733B633B533B433B32F56
:10118000B5EF08F0B4C09AF0B5C09BF0060E0001B0
:10119000B36F88C0B4F089C0B5F08AC0B6F08BC018
:1011A000B7F0B367D6EF08F0DEEF08F0B735B73326
:1011B000B633B533B433B32FD1EF08F0B4C098F0E1
:1011C000B5C099F0000E00018C6F000E8D6F000EFF
:1011D0008E6F000E8F6F000E886F000E896F000EED
:1011E0008A6F000E8B6F9AC004F19BC005F144C159
:1011F00016F045C117F048C118F049C119F0000EAA
:101200001B6E100E1A6E000E1D6E080E1C6E000E68
:101210001E6E0FEC0EF016C0A2F017C0A3F044C172
:101220000AF045C10BF0000E0D6E100E0C6E76EC40
:1012300014F098C024F199C025F146C116F047C1B9
:1012400017F048C118F049C119F0000E1B6E100EBE
:101250001A6E000E1D6E080E1C6E000E1E6E0FEC38
:101260000EF016C0A0F017C0A1F046C10AF047C1A9
:101270000BF0000E0D6E100E0C6E76EC14F00001EB
:10128000A405A511D8A447EF09F049EF09F04DEFE7
:1012900009F0B3EC0FF089EF0DF096059711D8A483
:1012A00054EF09F056EF09F05AEF09F065EC10F031
:1012B00089EF0DF094059511D8A461EF09F063EF63
:1012C00009F0D3EF0AF0050E60196111D8B46BEF85
:1012D00009F06DEF09F08BEF09F0050E621963114B
:1012E000D8B475EF09F077EF09F08BEF09F0050E30
:1012F00064196511D8B47FEF09F081EF09F08BEF25
:1013000009F0050E66196711D8A489EF09F08BEF73
:1013100009F08FEF09F0000EA86FC3EF0AF0060E78
:1013200060196111D8B497EF09F099EF09F0B7EFA0
:1013300009F0060E62196311D8B4A1EF09F0A3EF0A
:1013400009F0B7EF09F0060E64196511D8B4ABEFD8
:1013500009F0ADEF09F0B7EF09F0060E6619671155
:10136000D8A4B5EF09F0B7EF09F0BBEF09F0010E13
:10137000A86FC3EF0AF0070E60196111D8B4C3EF6C
:1013800009F0C5EF09F0E3EF09F0070E62196311E8
:10139000D8B4CDEF09F0CFEF09F0E3EF09F0070E75
:1013A00064196511D8B4D7EF09F0D9EF09F0E3EF6C
:1013B00009F0070E66196711D8A4E1EF09F0E3EF11
:1013C00009F0E7EF09F0020EA86FC3EF0AF0080E6C
:1013D00060196111D8B4EFEF09F0F1EF09F00FEFE8
:1013E0000AF0080E62196311D8B4F9EF09F0FBEFA7
:1013F00009F00FEF0AF0080E64196511D8B403EF75
:101400000AF005EF0AF00FEF0AF0080E66196711EF
:10141000D8A40DEF0AF00FEF0AF013EF0AF0030E55
:10142000A86FC3EF0AF0090E60196111D8B41BEF61
:101430000AF01DEF0AF03BEF0AF0090E6219631182
:10144000D8B425EF0AF027EF0AF03BEF0AF0090EB7
:1014500064196511D8B42FEF0AF031EF0AF03BEFB1
:101460000AF0090E66196711D8A439EF0AF03BEFAC
:101470000AF03FEF0AF0040EA86FC3EF0AF00A0E5D
:1014800060196111D8B447EF0AF049EF0AF067EF2D
:101490000AF00A0E62196311D8B451EF0AF053EF43
:1014A0000AF067EF0AF00A0E64196511D8B45BEF11
:1014B0000AF05DEF0AF067EF0AF00A0E661967118D
:1014C000D8A465EF0AF067EF0AF06BEF0AF0050E9B
:1014D000A86FC3EF0AF00B0E60196111D8B473EF57
:1014E0000AF075EF0AF093EF0AF00B0E6219631120
:1014F000D8B47DEF0AF07FEF0AF093EF0AF00B0EFD
:1015000064196511D8B487EF0AF089EF0AF093EFF8
:101510000AF00B0E66196711D8A491EF0AF093EF49
:101520000AF097EF0AF0060EA86FC3EF0AF00C0E50
:1015300060196111D8B49FEF0AF0A1EF0AF0BFEF74
:101540000AF00C0E62196311D8B4A9EF0AF0ABEFE0
:101550000AF0BFEF0AF00C0E64196511D8B4B3EFAE
:101560000AF0B5EF0AF0BFEF0AF00C0E661967112A
:10157000D8A4BDEF0AF0BFEF0AF0C3EF0AF0070EE0
:10158000A86FC3EF0AF0BC94400EDCEC16F000012B
:10159000A851DCEC16F0BC84000E0001956F000E23
:1015A000946F89EF0DF092059311D8A4DAEF0AF049
:1015B000DCEF0AF089EF0DF060056111D8B4E3EFBC
:1015C0000AF0E5EF0AF000EF0BF062056311D8B402
:1015D000ECEF0AF0EEEF0AF000EF0BF06405651196
:1015E000D8B4F5EF0AF0F7EF0AF000EF0BF066055C
:1015F0006711D8A4FEEF0AF000EF0BF00AEF0BF032
:10160000A2C09EF0A3C09FF0A0C09CF0A1C09DF01E
:1016100089EF0DF0020E60196111D8B412EF0BF0D2
:1016200014EF0BF032EF0BF0020E62196311D8B415
:101630001CEF0BF01EEF0BF032EF0BF0020E6419F3
:101640006511D8B426EF0BF028EF0BF032EF0BF05A
:10165000020E66196711D8A430EF0BF032EF0BF0D1
:10166000DFEF0BF09E51A25D0A6E9F51A3590B6EE6
:10167000F4EC15F00AC04AF10BC04BF100019C518B
:10168000A05D0A6E9D51A1590B6EF4EC15F00AC0D5
:101690004CF10BC04DF1000E126E020E136E220EB5
:1016A000146E100E156EF5EC0EF0010E0A6E4AC1A6
:1016B000B3F04BC1B4F00001D890B433B333D89039
:1016C000B433B333D890B433B333B35132EC14F0F2
:1016D0000001AA6F000E0A6E4AC1B3F04BC1B4F00C
:1016E000D890B433B333D890B433B333D890B43341
:1016F000B333B35132EC14F00001AB6F000EAC6F9A
:10170000000E126E020E136EAA0E146E000E156EEF
:10171000F5EC0EF0000E126E020E136EB80E146E83
:10172000000E156EF5EC0EF0000E126E020E136E2A
:101730002D0E146E100E156EF5EC0EF0010E0A6EE5
:101740004CC1B3F04DC1B4F00001D890B433B33301
:10175000D890B433B333D890B433B333B35132ECFD
:1017600014F00001AA6F000E0A6E4CC1B3F04DC117
:10177000B4F0D890B433B333D890B433B333D890F3
:10178000B433B333B35132EC14F00001AB6F000E3D
:10179000AC6F000E126E020E136EAA0E146E000EC7
:1017A000156EF5EC0EF0000E126E020E136EB80EF2
:1017B000146E000E156EF5EC0EF089EF0DF0030EB1
:1017C00060196111D8B4E7EF0BF0E9EF0BF007EF08
:1017D0000CF0030E62196311D8B4F1EF0BF0F3EFC4
:1017E0000BF007EF0CF0030E64196511D8B4FBEF92
:1017F0000BF0FDEF0BF007EF0CF0030E661967110D
:10180000D8A405EF0CF007EF0CF0D2EF0CF09E51CE
:10181000A25D0A6E9F51A3590B6EF4EC15F00AC03D
:101820004AF10BC04BF100019C51A05D0A6E9D5125
:10183000A1590B6EF4EC15F00AC04CF10BC04DF140
:10184000000E126E020E136E380E146E100E156E10
:10185000F5EC0EF0010E0A6E4CC1B3F04DC1B4F0C0
:101860000001D890B433B333D890B433B333D890A5
:10187000B433B333B35132EC14F00001AA6F000E4D
:101880000A6E4CC1B3F04DC1B4F0D890B433B33349
:10189000D890B433B333D890B433B333B35132ECBC
:1018A00014F00001AB6F000EAC6F000E126E020E52
:1018B000136EAA0E146E000E156EF5EC0EF0000EEF
:1018C000126E020E136EB80E146E000E156EF5EC4D
:1018D0000EF0000E126E020E136E430E146E100EFA
:1018E000156EF5EC0EF0010E0A6E4AC1B3F04BC155
:1018F000B4F00001D890B433B333D890B433B333D9
:10190000D890B433B333B35132EC14F00001AA6F62
:10191000000E0A6E4AC1B3F04BC1B4F0D890B43394
:10192000B333D890B433B333D890B433B333B35163
:1019300032EC14F00001AB6F000EAC6F000E126EB3
:10194000020E136EAA0E146E000E156EF5EC0EF05C
:10195000000E126E020E136EB80E146E000E156E8F
:10196000F5EC0EF0000E126E020E136E4E0E146E9B
:10197000100E156EF5EC0EF0000E126E020E136EC8
:10198000B80E146E000E156EF5EC0EF0000E126E11
:10199000020E136E150E146E100E156EF5EC0EF091
:1019A000D3EF0BF0040E60196111D8B4DAEF0CF02C
:1019B000DCEF0CF0FAEF0CF0040E62196311D8B4EE
:1019C000E4EF0CF0E6EF0CF0FAEF0CF0040E641903
:1019D0006511D8B4EEEF0CF0F0EF0CF0FAEF0CF06C
:1019E000040E66196711D8A4F8EF0CF0FAEF0CF0AA
:1019F00089EF0DF09E51A25D0A6E9F51A3590B6EA7
:101A0000F4EC15F00AC04AF10BC04BF100019C51F7
:101A1000A05D0A6E9D51A1590B6EF4EC15F00AC041
:101A20004CF10BC04DF101014C514A5D4D514B59E8
:101A3000D8B01DEF0DF01FEF0DF054EF0DF0000EBC
:101A4000126E020E136E060E146E100E156EF5EC6D
:101A50000EF0010E0A6E4CC1B3F04DC1B4F000019E
:101A6000D890B433B333D890B433B333D890B433BD
:101A7000B333B35132EC14F00001AA6F000E0A6EBA
:101A80004CC1B3F04DC1B4F0D890B433B333D89057
:101A9000B433B333D890B433B333B35132EC14F01E
:101AA0000001AB6FC7EF0BF0000E126E020E136E4B
:101AB000060E146E100E156EF5EC0EF0010E0A6E89
:101AC0004AC1B3F04BC1B4F00001D890B433B33382
:101AD000D890B433B333D890B433B333B35132EC7A
:101AE00014F00001AA6F000E0A6E4AC1B3F04BC198
:101AF000B4F0D890B433B333D890B433B333D89070
:101B0000B433B333B35132EC14F00001AB6FC7EF11
:101B10000BF04650D8B48FEF0DF091EF0DF0B9EF08
:101B20000DF0A3EC15F00001B36FB46BD8909035B5
:101B3000D96E9135DA6E600ED926000EDA22600079
:101B4000CFF2DEFF6000D3F2DDFF904B912B91BF0F
:101B5000B3EF0DF0915109E1040E905DD8A0B3EF01
:101B60000DF0B5EF0DF0B9EF0DF0000E916F000E16
:101B7000906F390193B9BFEF0DF0C1EF0DF09DEFFC
:101B800008F0000E0A6E020E0B6E11EC17F0000941
:101B9000D8B4CDEF0DF0CFEF0DF09DEF08F00001C0
:101BA00092059311D8A4D7EF0DF0D9EF0DF09DEF6A
:101BB00008F086C087F085C086F084C085F0000EEE
:101BC000126E020E136E17EC11F00001846F87295C
:101BD000D8A4EDEF0DF0EFEF0DF008EF0EF0862931
:101BE000D8A4F5EF0DF0F7EF0DF008EF0EF0852912
:101BF000D8A4FDEF0DF0FFEF0DF008EF0EF0200E72
:101C00008419D8B406EF0EF008EF0EF09DEF08F03F
:101C100084511EEC15F09DEF08F00DEF00F0000E62
:101C20000001AD6F000EAE6F000EAF6F000EB06F13
:101C3000000EB26F000EB16F92EF0EF0B1C01FF048
:101C4000B2C020F0D8901F3620361AC021F01BC039
:101C500022F0D8902136223621501624236E2250AD
:101C60001720246E1F50235C256E20502458266EAA
:101C7000FE0E2524D96EFF0E2620DA6E6F0078FF47
:101C800027F06F0074FF28F027C029F028C02AF041
:101C9000000E2ABEFF0E2B6E2C6ED890B135D96E79
:101CA000B235DA6E1650D9261750DA226F0078FF57
:101CB0002DF06F0074FF2EF02DC02FF02EC030F0ED
:101CC000000E30BEFF0E316E326E29502F240A6E88
:101CD0002A5030200B6E2B5031200C6E2C503220AD
:101CE0000D6ED890B135D96EB235DA6E1850D9264E
:101CF0001950DA226F0078FF0EF06F0074FF0FF0BA
:101D0000000E0FBEFF0E106E116EB9EC14F00A50EB
:101D10000001AD270B50AE230C50AF230D50B02364
:101D2000B14BB22B1C50B15DB251800A1F6E1D50D9
:101D3000800A1F58D8A09FEF0EF0A1EF0EF01EEF03
:101D40000EF01E04D8A4A7EF0EF0A9EF0EF0F0EFEE
:101D50000EF01CC01FF01DC020F0D8901F3620369A
:101D60001F501624216E20501720226EFE0E2124B3
:101D7000D96EFF0E2220DA6E6F0078FF0AF06F0036
:101D800074FF0BF0000E0BBEFF0E0C6E0D6E1CC030
:101D900023F01DC024F0D890233624362350182475
:101DA000256E24501920266EFE0E2524D96EFF0EB6
:101DB0002620DA6E6F0078FF0EF06F0074FF0FF0D0
:101DC000000E0FBEFF0E106E116EB9EC14F00A502B
:101DD0000001AD5F0B50AE5B0C50AF5B0D50B05BC4
:101DE000AFC016F0B0C017F01200000E1A6E3CEF34
:101DF0000FF01A501424166E000E1520176E600096
:101E00005BF0F6FF60005FF0F7FF000EF86E20EE6B
:101E1000C8F01250D9261350DA226F0078FF18F05C
:101E20006F0074FF19F0600063F0D9FF600067F085
:101E3000DAFF0F0EF76403D00800F55007D06F00EB
:101E4000DBFFE9FF6F00DFFFEAFFEF50DF6E1A2ACA
:101E500012C00AF013C00BF0C80E12240C6E000E54
:101E600013200D6EEEEC14F020EECCF01250D926BB
:101E70001350DA22010EDF6E20EECAF01250D9267E
:101E80001350DA2210EEC8F01250E1261350E2226D
:101E9000DE50E61807E1DE50E618D8A452EF0FF046
:101EA00054EF0FF062EF0FF020EECDF01250D92674
:101EB0001350DA22DF50D8B460EF0FF062EF0FF06A
:101EC00085EF0FF01A501424166E000E1520176EB1
:101ED00060005BF0F6FF60005FF0F7FF000EF86E49
:101EE0000F0EF76403D00800F55007D06F00DBFF3A
:101EF000E9FF6F00DFFFEAFFEF500009D8A483EF8E
:101F00000FF085EF0FF0F9EF0EF020EECAF012504F
:101F1000D9261350DA2210EEC8F01250E1261350E1
:101F2000E222DE50E61807E1DE50E618D8A49BEF67
:101F30000FF09DEF0FF0B2EF0FF020EECDF012504A
:101F4000D9261350DA22DE04D8A4A9EF0FF0ABEFA4
:101F50000FF0B2EF0FF020EECDF01250D926135053
:101F6000DA22DF6A12002AEF10F0000E0001936FF0
:101F7000000E926F700E1EEC15F0374A382A64EF8F
:101F800010F0720E1EEC15F0BDEF0FF0690E1EEC96
:101F900015F0BDEF0FF06E0E1EEC15F0BDEF0FF05B
:101FA000740E1EEC15F0BDEF0FF0200E1EEC15F0B8
:101FB000BDEF0FF0640E1EEC15F0BDEF0FF0700ECC
:101FC0001EEC15F0BDEF0FF0FF0E1EEC15F0BDEF8F
:101FD0000FF0FF0E1EEC15F0BDEF0FF0FF0E1EEC24
:101FE00015F0000E0001A56F000EA46F60056111D1
:101FF000D8B4FDEF0FF0FFEF0FF01AEF10F062050D
:102000006311D8B406EF10F008EF10F01AEF10F0DB
:1020100064056511D8B40FEF10F011EF10F01AEF4E
:1020200010F066056711D8A418EF10F01AEF10F041
:1020300020EF10F0000E976F010E966F24EF10F056
:10204000000E936F010E926F000E386E000E376E09
:1020500064EF10F037C00BF038C00CF00C50000AE1
:10206000D8B435EF10F064EF10F00B50000AD8B47C
:10207000B5EF0FF0010AD8B4C1EF0FF0030AD8B4DE
:10208000C6EF0FF0010AD8B4CBEF0FF0070AD8B4AF
:10209000D0EF0FF0010AD8B4D5EF0FF0030AD8B48F
:1020A000DAEF0FF0010AD8B4DFEF0FF00F0AD8B45F
:1020B000E4EF0FF0010AD8B4E9EF0FF0030AD8B447
:1020C000EEEF0FF064EF10F01200CCEF10F0BD8CCB
:1020D000000E0001936F000E926F700E1EEC15F053
:1020E000354A362A16EF11F0720E1EEC15F070EF1D
:1020F00010F0690E1EEC15F070EF10F06E0E1EEC75
:1021000015F070EF10F0740E1EEC15F070EF10F07B
:10211000200E1EEC15F070EF10F0670E1EEC15F09F
:1021200070EF10F0610E1EEC15F070EF10F02E0E37
:102130001EEC15F070EF10F0760E1EEC15F070EF3F
:1021400010F0610E1EEC15F070EF10F06C0E1EEC2E
:1021500015F070EF10F0FF0E1EEC15F070EF10F0A0
:10216000FF0E1EEC15F070EF10F0FF0E1EEC15F0D8
:10217000000E0001976F000E966F000E936F010E18
:10218000926F000E956F010E946F000E366E000E6A
:10219000356EBD9C16EF11F035C00BF036C00CF05B
:1021A0000C50000AD8B4D7EF10F016EF11F00B5016
:1021B000000AD8B467EF10F0010AD8B474EF10F039
:1021C000030AD8B479EF10F0010AD8B47EEF10F00A
:1021D000070AD8B483EF10F0010AD8B488EF10F0E2
:1021E000030AD8B48DEF10F0010AD8B492EF10F0C2
:1021F0000F0AD8B497EF10F0010AD8B49CEF10F092
:10220000030AD8B4A1EF10F0010AD8B4A6EF10F079
:10221000070AD8B4ABEF10F0010AD8B4B0EF10F051
:10222000030AD8B4B5EF10F016EF11F01200200E2B
:10223000186E20EECAF01250D9261350DA2210EE92
:10224000C8F01250E1261350E222DE50E61807E1F2
:10225000DE50E618D8A42FEF11F031EF11F03FEF68
:1022600011F020EECDF01250D9261350DA22DF50B3
:10227000D8A43DEF11F03FEF11F061EF11F020EE27
:10228000CAF01250D9261350DA226F0078FF14F0EA
:102290006F0074FF15F0600053F0D9FF600057F035
:1022A000DAFFDF50186E12C00AF013C00BF0CA0E2E
:1022B00012240C6E000E13200D6EEEEC14F068EF7D
:1022C00011F020EECCF01250D9261350DA22DF6A3A
:1022D00020EECAF01250D9261350DA2210EEC8F0C0
:1022E0001250E1261350E222DE50E61807E1DE50DC
:1022F000E618D8A47EEF11F080EF11F096EF11F000
:1023000020EECDF01250D9261350DA22DF50D8A497
:102310008CEF11F08EEF11F096EF11F020EECDF072
:102320001250D9261350DA22010EDF6E1850120017
:102330000B6E3D0114BF9FEF11F0A1EF11F005EFFF
:1023400012F00B50050D010EF324F66E100EF42062
:10235000F76EF86A000EF82208006F00D7FF14FD30
:102360000B50050D010EF326000EF422010EF3248E
:10237000F66E100EF420F76EF86A000EF8220800D0
:102380006F00D7FF15FD0B50050D020EF326000E52
:10239000F422010EF324F66E100EF420F76EF86AA4
:1023A000000EF8220800F5500309166F0B50050DBA
:1023B000030EF326000EF422010EF324F66E100E27
:1023C000F420F76EF86A000EF82208006F00D7FFBD
:1023D00019FD0B50050D040EF326000EF422010E1C
:1023E000F324F66E100EF420F76EF86A000EF82251
:1023F00008006F00D4FF0AF00A460A460A46C45095
:102400000A18F70B0A18C46E148F12003901A4952C
:102410003CEF12F0BD8E000E5AEC16F001C041F0F8
:1024200002C042F0415000018C2742508D23000E23
:102430008E23000E8F23010E446E59EF12F0000E12
:102440005AEC16F001C03FF002C040F03F500001CE
:10245000882740508923000E8A23000E8B23020E0A
:10246000446E59EF12F0BD9E030E446E59EF12F008
:10247000000E446E59EF12F04450066E076A075082
:10248000000AD8B446EF12F059EF12F00650000AD5
:10249000D8B40AEF12F0010AD8B41FEF12F0030A01
:1024A000D8B433EF12F0010AD8B438EF12F059EF74
:1024B00012F03EBE62EF12F03E04D8A062EF12F0BE
:1024C00064EF12F06FEF12F0000E0001A76F010E23
:1024D000A66F000E3E6E000E3D6E71EF12F03D4A8B
:1024E0003E2A12006F00E8FF08F06F00ECFF09F0D1
:1024F000390193A97EEF12F080EF12F095EF12F000
:10250000A3A985EF12F087EF12F095EF12F002D831
:1025100093EF12F00500FA6E4E50FD6E4F50FE6EB6
:10252000FF6AFA501200D5EF12F093A79AEF12F05B
:102530009CEF12F0B1EF12F0A3A7A1EF12F0A3EFFE
:1025400012F0B1EF12F002D8AFEF12F00500FA6E00
:102550005050FD6E5150FE6EFF6AFA501200D5EFDA
:1025600012F097A1B6EF12F0B8EF12F0C3EF12F02D
:10257000A7A1BDEF12F0BFEF12F0C3EF12F019ECFC
:1025800017F0D5EF12F094A5C8EF12F0CAEF12F0D1
:10259000D5EF12F0A4A5CFEF12F0D1EF12F0D5EFE6
:1025A00012F006EC12F0D5EF12F0600027F0FBFFFE
:1025B000600023F0FAFF1100680E4824D96EDA6A31
:1025C000000EDA22DF6A3D01F9A7E9EF12F0EBEF26
:1025D00012F0FFEF12F0680E4824D96EDA6A000E8E
:1025E000DA220001DF8202D8FFEF12F00500FA6E56
:1025F0004C50FD6E4D50FE6EFF6AFA5012003D01C8
:10260000F9A305EF13F007EF13F01CEF13F0680EBA
:102610004824D96EDA6A000EDA220001DF8402D87B
:102620001CEF13F00500FA6E0101E151FD6EE2515D
:10263000FE6EFF6AFA501200680E4824D96EDA6AFC
:10264000000EDA22DF50D8B428EF13F02AEF13F08F
:1026500039EF13F002D837EF13F00500FA6E0101DD
:10266000DF51FD6EE051FE6EFF6AFA5012003BEF43
:1026700013F09FEC16F01200000EBE6E000EBD6E41
:10268000000EBA6E000EBB6E000EBC6E070EC66E5C
:10269000C268C368930EC46E3F0EC56E3A0170697E
:1026A000670E606F5069070E806F4069000E716F92
:1026B000000E816F000E516F000E416F000E616FB2
:1026C000000E5A6F000E5B6F000E6A6F000E6B6F8C
:1026D000000E7A6F000E7B6F000E826F000E426F4D
:1026E000000E526F000E626F000E726F43695369E5
:1026F00063697369070E836F446954696469746917
:102700000F0E846F130EDE6F1E0E136F1F0E156FEC
:10271000130E166F170EE56F140EDF6F12003901DE
:102720009397B80E0A6E250E0B6E26EC17F0390142
:102730009399300E0A6E2C0E0B6E21EC17F0000EE2
:102740003D01EC6F000EED6F000EEE6F000EEF6FAF
:10275000000EF06F000EF16FB00EF26F800EF36F8F
:10276000000EF46F820EF56F060EF66F000EF76F17
:10277000000EF86F000EF96F000EFA6FA20E0A6ECF
:102780002E0E0B6E30EC17F0A00E0A6E2E0E0B6E96
:102790002BEC17F0900E0A6E2E0E0B6E35EC17F028
:1027A000000E456E000E4B6E000E4A6E080E496E0E
:1027B000000E486E000E476E000E466E390193877C
:1027C0001200740EF66E2C0EF76E000EF86E00EE10
:1027D0009BF110EE40F009006F00D7FFEEFFE550CF
:1027E000E150F9E1960EF66E2E0EF76E000EF86EC1
:1027F00000EEB8F010EE04F009006F00D7FFEEFF16
:10280000E550E150F9E19E0EF66E2E0EF76E000EC9
:10281000F86E09006F00D4FF52F009006F00D4FF7A
:1028200053F000EE00F2CE0EEE6AE806FDE100EE97
:102830004EF14D0EEE6AE806FDE100EE60F04D0E41
:10284000EE6AE806FDE100EE33F0190EEE6AE806E6
:10285000FDE1080ED56E000ED66E000ED76E00019B
:1028600031EF08F0226E20EE9BF110EE0CF00F0E0F
:102870006F006FFFE3FFE806FBE20A50D8B443EFB6
:1028800014F045EF14F04BEF14F0000E1F6EF00E35
:102890001E6E4FEF14F0000E1F6E0F0E1E6E1EC048
:1028A00023F00A50D8B457EF14F059EF14F064EF46
:1028B00014F0225023140B6E0B3A0F0E0B160B5014
:1028C000206E216A6AEF14F0225023140B6E0B5015
:1028D000206E216A20C01DF00C0E1D24D96EDA6A0C
:1028E000000EDA22DF501C6E1C5012000CC00EF0DD
:1028F0000DC00FF0D8900E360F360E500A24106E11
:102900000F500B20116EFC0E1024126EFF0E1120C2
:10291000136EFE0E0C24146EFF0E0D20156E15BEE8
:1029200096EF14F094EF14F098EF14F0B8EF14F061
:1029300060004BF0D9FF60004FF0DAFF10EE02F0BC
:102940001250E1261350E2226F007BFFE6FF6F007A
:1029500077FFE5FF020E125E000E135A1406D8A090
:10296000150615BEB8EF14F0B6EF14F098EF14F09A
:102970001200000E126E000E136E000E146E000E8A
:10298000156E0AA0C6EF14F0C8EF14F0D0EF14F0E3
:102990000E5012260F5013221050142211501522DF
:1029A000D8900E360F3610361136D8900D320C32C4
:1029B0000B320A320A500B100C100D10D8A4E3EFA2
:1029C00014F0E5EF14F0C1EF14F012C00AF013C0D8
:1029D0000BF014C00CF015C00DF01200C70E0A2445
:1029E0000E6E000E0B200F6E600033F0D9FF6000FA
:1029F00037F0DAFF0E50DE1807E10F50DE18D8A4CA
:102A000004EF15F006EF15F014EF15F0600033F049
:102A1000D9FF600037F0DAFF60002BF0DEFF6000C6
:102A20002FF0DDFF1DEF15F0600033F0D9FF6000DF
:102A300037F0DAFFDE2A000EDD2212000A6E49505E
:102A4000D8B425EF15F027EF15F01FEF15F0390179
:102A500093B92DEF15F02FEF15F034EF15F060005E
:102A60002BF0EAFD4AEF15F09399780E4B24D96EBE
:102A7000DA6A000EDA2260002BF0DFFF4B2A070E25
:102A80004B6445EF15F047EF15F049EF15F0000ED8
:102A90004B6E490693891200000E3E01DE6F000E58
:102AA000DF6F000EE06F000EE16F000EE46F000EAE
:102AB000E56F000EEA6F000EEC6F000EF16F000E76
:102AC000F36F000EF46F000EF56F000EF66F000E40
:102AD000F76F010EF96F000EFA6F000EFB6F000E1C
:102AE000FC6F030EFD6F000EFE6F1F0EFF6F840E56
:102AF000F86F1200000E126E000E116E93EF15F0BB
:102B000011500B240F6E12500C20106E60003FF01D
:102B1000F6FF600043F0F7FFF86A0800F5501EEC7E
:102B200015F0114A122A0D50115C1250800A0F6ED6
:102B30000E50800A0F58D8A0A0EF15F0A2EF15F0A4
:102B400080EF15F012004650D8B4A9EF15F0ABEFA6
:102B500015F0A3EF15F0680E4724D96EDA6A000E5F
:102B6000DA22DF50456E700E4724D96EDA6A000E05
:102B7000DA22DF500A6E472A070E4764C2EF15F0CB
:102B8000C4EF15F0C6EF15F0000E476E39019397AC
:102B9000460693870A50120020EEC8F00A50D92644
:102BA0000B50DA2260002BF0DEFF60002FF0DDFF1B
:102BB00020EECAF00A50D9260B50DA2260002BF022
:102BC000DEFF60002FF0DDFF20EECCF00A50D926AA
:102BD0000B50DA22DF6A20EECDF00A50D9260B50D6
:102BE000DA22010EDF6E12000BBEFFEF15F00B5064
:102BF00008E10A04D8A0FFEF15F001EF16F007EF87
:102C000016F00AC00EF00BC00FF013EF16F00AC05A
:102C10000CF00BC00DF00C1E0D1E0C4A0D2A0CC042
:102C20000EF00DC00FF00EC00AF00FC00BF0120036
:102C3000080E49601EEF16F020EF16F037EF16F081
:102C4000780E4A24D96EDA6A000EDA22DF503D018E
:102C5000EA6F4A2A070E4A6430EF16F032EF16F098
:102C600034EF16F0000E4A6E492A39EF16F039019A
:102C70009399120030313233343536373839414286
:102C80004344454600000C0094FF3CFD64FC1C0AD4
:102C9000302D704F704F302D1C0A64FC3CFD94FFAA
:102CA0000C00000000000C0094FF3CFD64FC1C0ABA
:102CB000302D704F056E600017F0F1FE3E01F88F69
:102CC000F89DF881F8B167EF16F069EF16F062EF42
:102CD00016F0F051046E036AEF510324016E000EEA
:102CE0000420026E1200040EA26E000EA16E000EF1
:102CF000A36EF10E9F6E000E9E6E3901A791978113
:102D0000000E0A6E000E0B6E3AEC17F0C30EA06EAA
:102D10001200010EAE6E000EAD6E000EAF6EC70E4D
:102D2000AB6E000EAA6E3901A4959485000E0A6E52
:102D3000000E0B6E3FEC17F0A00EAC6E1200700E82
:102D40004824D96EDA6A000EDA226F00A3F7DFFF9B
:102D5000482A070E4864AFEF16F0B1EF16F0B3EF54
:102D600016F0000E486E462A12004DEC17F0CAEC21
:102D700016F03CEC13F0FBEC16F044EC17F04CECC6
:102D800015F073EC16F089EC16F08FEC13F0EEEC06
:102D900016F01200000E3901C06F000EC16F000E58
:102DA000C26F000EC36F000EC46F000EC56F000E21
:102DB000C66F000EC76F12000A6E010E3D01126F42
:102DC00060002BF011FD3901A2A9E9EF16F0EBEF3D
:102DD00016F0E3EF16F03D0110511200020E3D0116
:102DE000146F400E156F000E166F000E1C6F030E51
:102DF000196FC4961200600E3901D96F000EDB6F97
:102E0000000EDD6F080EDF6F000EDE6F1200FF0E8A
:102E10001EEC15F0FF0E1EEC15F0FF0E1EEC15F06B
:102E2000120020EECCF00A50D9260B50DA22DF50E7
:102E300012003901A791000E0001A56F010EA46FC9
:102E400012000AC04EF00BC04FF012000AC050F042
:102E50000BC051F012000AC0E1F10BC0E2F1120008
:102E60000AC04CF00BC04DF012000AC0DFF10BC0DD
:102E7000E0F112000AC0DBF10BC0DCF112000AC065
:102E8000DDF10BC0DEF112008A0E3E01C16F1200AF
:102E90009FEC16F01200FFFFFF00D29A1200000212
:042EA000120012000A
:020000040020DA
:10000000FFFFFFFFFFFFFFFFFFFFFFFFFFFFFFFF00
:020000040030CA
:0A0000008CFFF7FF9FFFFFFFFFFFDB
:00000001FF
