:040000000DEF00F010
:0400080057EF10F0AE
:06001800FF00C5EF11F02E
:101000000002400003007072696E74206470006119
:101010002E76616C3D307800622E76616C3D3078C2
:1010200000006FEC14F0000E0201006F000E016F63
:10103000000E026F000E036FD28E4D0E0A6E010E6F
:101040000B6EAAEC13F0000E7DEC0FF0BC84BC9488
:10105000400E96EC14F00001B75196EC14F0BC84ED
:1010600020EE04F21F0EDE6AE806FDE220EE24F216
:101070001F0EDE6AE806FDE2040E0201446F020E56
:10108000456F240E466F020E476FE70E486F010E44
:10109000496F060E0B6E100E0C6E000E0E6E080ED3
:1010A0000D6E58EC13F0C1EC14F0060E0B6E100E22
:1010B0000C6E000E0E6E080E0D6E58EC13F0C1ECA7
:1010C00014F0060E0B6E100E0C6E000E0E6E080E57
:1010D0000D6E58EC13F0C1EC14F0060E0B6E100EF2
:1010E0000C6E000E0E6E080E0D6E58EC13F0C1EC77
:1010F00014F00001A605A711D8A481EF08F083EF32
:1011000008F06EEF0BF0000EA76F000EA66F060E34
:10111000B26F8CC0B3F08DC0B4F08EC0B5F08FC08C
:10112000B6F0B26796EF08F09EEF08F0B635B6332A
:10113000B533B433B333B22F91EF08F0B3C09AF0A4
:10114000B4C09BF0060E0001B26F88C0B3F089C036
:10115000B4F08AC0B5F08BC0B6F0B267B2EF08F059
:10116000BAEF08F0B635B633B533B433B333B22F74
:10117000ADEF08F0B3C098F0B4C099F0000E0001D4
:101180008C6F000E8D6F000E8E6F000E8F6F000E35
:10119000886F000E896F000E8A6F000E8B6F9AC0E9
:1011A00004F29BC005F244C216F045C217F048C2D3
:1011B00018F049C219F0000E1B6E100E1A6E000EC8
:1011C0001D6E080E1C6E000E1E6EF4EC0BF016C0A9
:1011D000A2F017C0A3F044C20AF045C20BF0000E03
:1011E0000D6E100E0C6E54EC12F098C024F299C0E3
:1011F00025F246C216F047C217F048C218F049C29D
:1012000019F0000E1B6E100E1A6E000E1D6E080EE9
:101210001C6E000E1E6EF4EC0BF016C0A0F017C092
:10122000A1F046C20AF047C20BF0000E0D6E100E80
:101230000C6E54EC12F00001A405A511D8A423EF04
:1012400009F025EF09F029EF09F098EC0DF06EEFA9
:101250000BF096059711D8A430EF09F032EF09F0A2
:1012600036EF09F04CEC0EF06EEF0BF09405951193
:10127000D8A43DEF09F03FEF09F0AFEF0AF0050EFB
:1012800060196111D8B447EF09F049EF09F067EF31
:1012900009F0050E62196311D8B451EF09F053EF4C
:1012A00009F067EF09F0050E64196511D8B45BEF1A
:1012B00009F05DEF09F067EF09F0050E6619671197
:1012C000D8A465EF09F067EF09F06BEF09F0000EA5
:1012D000B76F9FEF0AF0060E60196111D8B473EF73
:1012E00009F075EF09F093EF09F0060E621963112A
:1012F000D8B47DEF09F07FEF09F093EF09F0060E07
:1013000064196511D8B487EF09F089EF09F093EFFC
:1013100009F0060E66196711D8A491EF09F093EF52
:1013200009F097EF09F0010EB76F9FEF0AF0070E73
:1013300060196111D8B49FEF09F0A1EF09F0BFEF78
:1013400009F0070E62196311D8B4A9EF09F0ABEFE9
:1013500009F0BFEF09F0070E64196511D8B4B3EFB7
:1013600009F0B5EF09F0BFEF09F0070E6619671134
:10137000D8A4BDEF09F0BFEF09F0C3EF09F0020EEA
:10138000B76F9FEF0AF0080E60196111D8B4CBEF68
:1013900009F0CDEF09F0EBEF09F0080E62196311C7
:1013A000D8B4D5EF09F0D7EF09F0EBEF09F0080E4C
:1013B00064196511D8B4DFEF09F0E1EF09F0EBEF44
:1013C00009F0080E66196711D8A4E9EF09F0EBEFF0
:1013D00009F0EFEF09F0030EB76F9FEF0AF0090E67
:1013E00060196111D8B4F7EF09F0F9EF09F017EFC0
:1013F0000AF0090E62196311D8B401EF0AF003EF85
:101400000AF017EF0AF0090E64196511D8B40BEF52
:101410000AF00DEF0AF017EF0AF0090E66196711CE
:10142000D8A415EF0AF017EF0AF01BEF0AF0040E2C
:10143000B76F9FEF0AF00A0E60196111D8B423EF5D
:101440000AF025EF0AF043EF0AF00A0E6219631161
:10145000D8B42DEF0AF02FEF0AF043EF0AF00A0E8E
:1014600064196511D8B437EF0AF039EF0AF043EF89
:101470000AF00A0E66196711D8A441EF0AF043EF8B
:101480000AF047EF0AF0050EB76F9FEF0AF00B0E58
:1014900060196111D8B44FEF0AF051EF0AF06FEF05
:1014A0000AF00B0E62196311D8B459EF0AF05BEF22
:1014B0000AF06FEF0AF00B0E64196511D8B463EFF0
:1014C0000AF065EF0AF06FEF0AF00B0E661967116C
:1014D000D8A46DEF0AF06FEF0AF073EF0AF0060E72
:1014E000B76F9FEF0AF00C0E60196111D8B47BEF53
:1014F0000AF07DEF0AF09BEF0AF00C0E62196311FF
:10150000D8B485EF0AF087EF0AF09BEF0AF00C0ED3
:1015100064196511D8B48FEF0AF091EF0AF09BEFD0
:101520000AF00C0E66196711D8A499EF0AF09BEF28
:101530000AF09FEF0AF0070EB76F9FEF0AF0BC9416
:10154000400E96EC14F00001B75196EC14F0BC84F8
:10155000000E0001956F000E946F6EEF0BF0920578
:101560009311D8A4B6EF0AF0B8EF0AF06EEF0BF0C3
:1015700060056111D8B4BFEF0AF0C1EF0AF0DCEFEB
:101580000AF062056311D8B4C8EF0AF0CAEF0AF096
:10159000DCEF0AF064056511D8B4D1EF0AF0D3EF9F
:1015A0000AF0DCEF0AF066056711D8A4DAEF0AF05A
:1015B000DCEF0AF0E6EF0AF0A2C09EF0A3C09FF0B5
:1015C000A0C09CF0A1C09DF06EEF0BF0020E601960
:1015D0006111D8B4EEEF0AF0F0EF0AF00EEF0BF065
:1015E000020E62196311D8B4F8EF0AF0FAEF0AF0AC
:1015F0000EEF0BF0020E64196511D8B402EF0BF078
:1016000004EF0BF00EEF0BF0020E66196711D8A471
:101610000CEF0BF00EEF0BF06EEF0BF04D0E126EA9
:10162000010E136E0F0E146E100E156EDAEC0CF028
:10163000010E0A6E0001A15110EC12F00001A96F19
:10164000000E0A6EA15110EC12F00001AA6F000EFC
:10165000AB6F4D0E126E010E136EA90E146E000EBE
:10166000156EDAEC0CF04D0E126E010E136EB80E04
:10167000146E000E156EDAEC0CF04D0E126E010EAB
:10168000136E180E146E100E156EDAEC0CF0010EBF
:101690000A6E0001A05110EC12F00001A96F000EBB
:1016A0000A6EA05110EC12F00001AA6F000EAB6F91
:1016B0004D0E126E010E136EA90E146E000E156EF5
:1016C000DAEC0CF04D0E126E010E136EB80E146EA5
:1016D000000E156EDAEC0CF06EEF0BF04650D8B43D
:1016E00074EF0BF076EF0BF09EEF0BF081EC13F044
:1016F0000001B26FB36BD8909035D96E9135DA6E28
:10170000600ED926000EDA226000CBF2DEFF600008
:10171000CFF2DDFF904B912B91BF98EF0BF09151E1
:1017200009E1040E905DD8A098EF0BF09AEF0BF052
:101730009EEF0BF0000E916F000E906F390193B980
:10174000A4EF0BF0A6EF0BF079EF08F04D0E0A6E48
:10175000010E0B6ECBEC14F00009D8B4B2EF0BF015
:10176000B4EF0BF079EF08F0000192059311D8A4C3
:10177000BCEF0BF0BEEF0BF079EF08F086C087F0FE
:1017800085C086F084C085F04D0E126E010E136E7A
:10179000FCEC0EF00001846F8729D8A4D2EF0BF087
:1017A000D4EF0BF0EDEF0BF08629D8A4DAEF0BF0B5
:1017B000DCEF0BF0EDEF0BF08529D8A4E2EF0BF096
:1017C000E4EF0BF0EDEF0BF0200E8419D8B4EBEF43
:1017D0000BF0EDEF0BF079EF08F08451FCEC12F018
:1017E00079EF08F00DEF00F0000E0001AC6F000E75
:1017F000AD6F000EAE6F000EAF6F000EB16F000E3A
:10180000B06F77EF0CF0B0C01FF0B1C020F0D890EF
:101810001F3620361AC021F01BC022F0D890213686
:10182000223621501624236E22501720246E1F507A
:10183000235C256E20502458266EFE0E2524D96E7A
:10184000FF0E2620DA6E6F0078FF27F06F0074FF1E
:1018500028F027C029F028C02AF0000E2ABEFF0E6B
:101860002B6E2C6ED890B035D96EB135DA6E16501D
:10187000D9261750DA226F0078FF2DF06F0074FF21
:101880002EF02DC02FF02EC030F0000E30BEFF0E17
:10189000316E326E29502F240A6E2A5030200B6E82
:1018A0002B5031200C6E2C5032200D6ED890B0355C
:1018B000D96EB135DA6E1850D9261950DA226F0078
:1018C00078FF0EF06F0074FF0FF0000E0FBEFF0EDA
:1018D000106E116E97EC12F00A500001AC270B50FD
:1018E000AD230C50AE230D50AF23B04BB12B1C5089
:1018F000B05DB151800A1F6E1D50800A1F58D8A0DC
:1019000084EF0CF086EF0CF003EF0CF01E04D8A46B
:101910008CEF0CF08EEF0CF0D5EF0CF01CC01FF02C
:101920001DC020F0D8901F3620361F501624216E7F
:1019300020501720226EFE0E2124D96EFF0E222089
:10194000DA6E6F0078FF0AF06F0074FF0BF0000E84
:101950000BBEFF0E0C6E0D6E1CC023F01DC024F0DC
:10196000D8902336243623501824256E245019206D
:10197000266EFE0E2524D96EFF0E2620DA6E6F002D
:1019800078FF0EF06F0074FF0FF0000E0FBEFF0E19
:10199000106E116E97EC12F00A500001AC5F0B5004
:1019A000AD5B0C50AE5B0D50AF5BAEC016F0AFC080
:1019B00017F01200000E1A6E21EF0DF01A501424C9
:1019C000166E000E1520176E60005BF0F6FF6000CB
:1019D0005FF0F7FF000EF86E20EE64F01250D9268B
:1019E0001350DA226F0078FF18F06F0074FF19F0BF
:1019F000600063F0D9FF600067F0DAFF0F0EF76454
:101A000003D00800F55007D06F00DBFFE9FF6F003F
:101A1000DFFFEAFFEF50DF6E1A2A12C00AF013C090
:101A20000BF0640E12240C6E000E13200D6ECCEC25
:101A300012F020EE68F01250D9261350DA22010E6F
:101A4000DF6E20EE66F01250D9261350DA2210EE27
:101A500064F01250E1261350E222DE50E61807E14E
:101A6000DE50E618D8A437EF0DF039EF0DF047EF50
:101A70000DF020EE69F01250D9261350DA22DF5013
:101A8000D8B445EF0DF047EF0DF06AEF0DF01A50A6
:101A90001424166E000E1520176E60005BF0F6FF22
:101AA00060005FF0F7FF000EF86E0F0EF76403D0D2
:101AB0000800F55007D06F00DBFFE9FF6F00DFFF84
:101AC000EAFFEF500009D8A468EF0DF06AEF0DF0BF
:101AD000DEEF0CF020EE66F01250D9261350DA2219
:101AE00010EE64F01250E1261350E222DE50E618A8
:101AF00007E1DE50E618D8A480EF0DF082EF0DF07C
:101B000097EF0DF020EE69F01250D9261350DA222B
:101B1000DE04D8A48EEF0DF090EF0DF097EF0DF0EE
:101B200020EE69F01250D9261350DA22DF6A120033
:101B300011EF0EF0BD8C000E0001936F000E926F3E
:101B4000700EFCEC12F0374A382A4BEF0EF0720E92
:101B5000FCEC12F0A3EF0DF0690EFCEC12F0A3EF19
:101B60000DF06E0EFCEC12F0A3EF0DF0740EFCEC19
:101B700012F0A3EF0DF0200EFCEC12F0A3EF0DF02D
:101B8000640EFCEC12F0A3EF0DF0700EFCEC12F002
:101B9000A3EF0DF0FF0EFCEC12F0A3EF0DF0FF0E23
:101BA000FCEC12F0A3EF0DF0FF0EFCEC12F0BD9C6C
:101BB000000E0001A56F000EA46F60056111D8B47E
:101BC000E4EF0DF0E6EF0DF001EF0EF062056311AA
:101BD000D8B4EDEF0DF0EFEF0DF001EF0EF064056E
:101BE0006511D8B4F6EF0DF0F8EF0DF001EF0EF03F
:101BF00066056711D8A4FFEF0DF001EF0EF007EFB7
:101C00000EF0000E976F010E966F0BEF0EF0000EA8
:101C1000936F010E926F000E386E000E376E4BEF11
:101C20000EF037C00BF038C00CF00C50000AD8B4DE
:101C30001CEF0EF04BEF0EF00B50000AD8B49AEFE9
:101C40000DF0010AD8B4A7EF0DF0030AD8B4ACEF39
:101C50000DF0010AD8B4B1EF0DF0070AD8B4B6EF11
:101C60000DF0010AD8B4BBEF0DF0030AD8B4C0EFF1
:101C70000DF0010AD8B4C5EF0DF00F0AD8B4CAEFC1
:101C80000DF0010AD8B4CFEF0DF0030AD8B4D4EFA9
:101C90000DF04BEF0EF01200B1EF0EF0000E000150
:101CA000936F000E926F700EFCEC12F0354A362ADC
:101CB000FBEF0EF0720EFCEC12F056EF0EF0690E18
:101CC000FCEC12F056EF0EF06E0EFCEC12F056EF3C
:101CD0000EF0740EFCEC12F056EF0EF0200EFCEC41
:101CE00012F056EF0EF0670EFCEC12F056EF0EF00D
:101CF000610EFCEC12F056EF0EF02E0EFCEC12F022
:101D000056EF0EF0760EFCEC12F056EF0EF0610E70
:101D1000FCEC12F056EF0EF06C0EFCEC12F056EFED
:101D20000EF0FF0EFCEC12F056EF0EF0FF0EFCEC86
:101D300012F056EF0EF0FF0EFCEC12F0000E000158
:101D4000976F000E966F000E936F010E926F000E4C
:101D5000956F010E946F000E366E000E356EFBEF20
:101D60000EF035C00BF036C00CF00C50000AD8B4A1
:101D7000BCEF0EF0FBEF0EF00B50000AD8B44EEFA4
:101D80000EF0010AD8B45AEF0EF0030AD8B45FEF90
:101D90000EF0010AD8B464EF0EF0070AD8B469EF68
:101DA0000EF0010AD8B46EEF0EF0030AD8B473EF48
:101DB0000EF0010AD8B478EF0EF00F0AD8B47DEF18
:101DC0000EF0010AD8B482EF0EF0030AD8B487EF00
:101DD0000EF0010AD8B48CEF0EF0070AD8B491EFD8
:101DE0000EF0010AD8B496EF0EF0030AD8B49BEFB8
:101DF0000EF0FBEF0EF01200200E186E20EE66F0D3
:101E00001250D9261350DA2210EE64F01250E12657
:101E10001350E222DE50E61807E1DE50E618D8A49F
:101E200014EF0FF016EF0FF024EF0FF020EE69F033
:101E30001250D9261350DA22DF50D8A422EF0FF027
:101E400024EF0FF046EF0FF020EE66F01250D92687
:101E50001350DA226F0078FF14F06F0074FF15F052
:101E6000600053F0D9FF600057F0DAFFDF50186EC2
:101E700012C00AF013C00BF0660E12240C6E000E96
:101E800013200D6ECCEC12F04DEF0FF020EE68F049
:101E90001250D9261350DA22DF6A20EE66F0125073
:101EA000D9261350DA2210EE64F01250E1261350B6
:101EB000E222DE50E61807E1DE50E618D8A463EF10
:101EC0000FF065EF0FF07BEF0FF020EE69F012508E
:101ED000D9261350DA22DF50D8A471EF0FF073EF38
:101EE0000FF07BEF0FF020EE69F01250D92613505F
:101EF000DA22010EDF6E185012000B6E3D0114BF86
:101F000084EF0FF086EF0FF0EAEF0FF00B50050DA6
:101F1000010EF324F66E100EF420F76EF86A000E30
:101F2000F82208006F00D7FF14FD0B50050D010EBD
:101F3000F326000EF422010EF324F66E100EF420A8
:101F4000F76EF86A000EF82208006F00D7FF15FD43
:101F50000B50050D020EF326000EF422010EF324A1
:101F6000F66E100EF420F76EF86A000EF8220800E4
:101F7000F5500309166F0B50050D030EF326000EE6
:101F8000F422010EF324F66E100EF420F76EF86AB8
:101F9000000EF82208006F00D7FF19FD0B50050D49
:101FA000040EF326000EF422010EF324F66E100E3A
:101FB000F420F76EF86A000EF82208006F00D4FFD4
:101FC0000AF00A460A460A46C4500A18F70B0A18CD
:101FD000C46E148F12003901A49521EF10F0BD8E4C
:101FE000040E14EC14F001C041F002C042F0415064
:101FF00000018C2742508D23000E8E23000E8F236C
:10200000010E446E3EEF10F0000E14EC14F001C00F
:102010003FF002C040F03F50000188274050892324
:10202000000E8A23000E8B23020E446E3EEF10F04A
:10203000BD9E030E446E3EEF10F0000E446E3EEF68
:1020400010F04450066E076A0750000AD8B42BEF10
:1020500010F03EEF10F00650000AD8B4EFEF0FF08A
:10206000010AD8B404EF10F0030AD8B418EF10F046
:10207000010AD8B41DEF10F03EEF10F03EBE47EF5E
:1020800010F03E04D8A047EF10F049EF10F054EFE5
:1020900010F0000E0001A76F010EA66F000E3E6E3D
:1020A000000E3D6E56EF10F03D4A3E2A12006F00C2
:1020B000E8FF08F06F00ECFF09F0390193A963EF26
:1020C00010F065EF10F07AEF10F0A3A96AEF10F0AE
:1020D0006CEF10F07AEF10F002D878EF10F00500F6
:1020E000FA6E4E50FD6E4F50FE6EFF6AFA501200AF
:1020F000BAEF10F093A77FEF10F081EF10F096EF9A
:1021000010F0A3A786EF10F088EF10F096EF10F014
:1021100002D894EF10F00500FA6E5050FD6E515049
:10212000FE6EFF6AFA501200BAEF10F097A19BEF13
:1021300010F09DEF10F0A8EF10F0A7A1A2EF10F0A3
:10214000A4EF10F0A8EF10F0D3EC14F0BAEF10F0F9
:1021500094A5ADEF10F0AFEF10F0BAEF10F0A4A51A
:10216000B4EF10F0B6EF10F0BAEF10F0EBEC0FF0A8
:10217000BAEF10F0600027F0FBFF600023F0FAFFD9
:102180001100680E4824D96EDA6A000EDA22DF6A7E
:102190003D01F9A7CEEF10F0D0EF10F0E4EF10F012
:1021A000680E4824D96EDA6A000EDA220001DF8256
:1021B00002D8E4EF10F00500FA6E4C50FD6E4D5061
:1021C000FE6EFF6AFA5012003D01F9A3EAEF10F02B
:1021D000ECEF10F000EF11F0680E4824D96EDA6AC7
:1021E000000EDA220001DF8402D800EF11F00500B2
:1021F000FA6EBE51FD6EBF51FE6EFF6AFA501200BC
:10220000680E4824D96EDA6A000EDA22DF50D8B49C
:102210000CEF11F00EEF11F01DEF11F002D81BEFD3
:1022200011F00500FA6E0001BC51FD6EBD51FE6E4D
:10223000FF6AFA5012001FEF11F059EC14F012006F
:10224000000EBE6E000EBD6E000EBA6E000EBB6EAE
:10225000000EBC6E070EC66EC268C368930EC46ED5
:102260003F0EC56E3A017069670E606F5069070EC8
:10227000806F4069000E716F000E816F000E516F0C
:10228000000E416F000E616F000E5A6F000E5B6F03
:10229000000E6A6F000E6B6F000E7A6F000E7B6F80
:1022A000000E826F000E426F000E526F000E626FC2
:1022B000000E726F4369536963697369070E836F18
:1022C00044695469646974690F0E846F130EDE6F7C
:1022D0001E0E136F1F0E156F130E166F170EE56F80
:1022E000140EDF6F120039019397820E0A6E210ED1
:1022F0000B6EE0EC14F039019399A40E0A6E270ED0
:102300000B6EDBEC14F0000E3D01EC6F000EED6F78
:10231000000EEE6F000EEF6F000EF06F000EF16F0B
:10232000B00EF26F800EF36F000EF46F1E0EF56F9D
:10233000000EF66F000EF76F000EF86F000EF96FCB
:10234000000EFA6F180E0A6E2A0E0B6EEAEC14F0ED
:10235000160E0A6E2A0E0B6EE5EC14F0040E0A6ED1
:102360002A0E0B6EEFEC14F0000E456E000E4B6E55
:10237000000E4A6E080E496E000E486E000E476E43
:10238000000E466E390193871200E80EF66E270E96
:10239000F76E000EF86E00EEB7F110EE40F0090097
:1023A0006F00D7FFEEFFE550E150F9E10A0EF66E3F
:1023B0002A0EF76E000EF86E00EEB7F010EE05F084
:1023C00009006F00D7FFEEFFE550E150F9E1140E70
:1023D000F66E2A0EF76E000EF86E09006F00D4FF3D
:1023E00052F009006F00D4FF53F000EE00F1B70E79
:1023F000EE6AE806FDE100EE60F04C0EEE6AE806DB
:10240000FDE100EE33F0190EEE6AE806FDE1080E7C
:10241000D56E000ED66E000ED76E000111EF08F0DB
:10242000226E20EEB7F110EE0CF00F0E6F006FFF72
:10243000E3FFE806FBE20A50D8B421EF12F023EFE5
:1024400012F029EF12F0000E1F6EF00E1E6E2DEF2F
:1024500012F0000E1F6E0F0E1E6E1EC023F00A50EB
:10246000D8B435EF12F037EF12F042EF12F02250ED
:1024700023140B6E0B3A0F0E0B160B50206E216AB5
:1024800048EF12F0225023140B6E0B50206E216A7D
:1024900020C01DF00C0E1D24D96EDA6A000EDA225F
:1024A000DF501C6E1C5012000CC00EF00DC00FF05F
:1024B000D8900E360F360E500A24106E0F500B2097
:1024C000116EFC0E1024126EFF0E1120136EFE0E04
:1024D0000C24146EFF0E0D20156E15BE74EF12F055
:1024E00072EF12F076EF12F096EF12F060004BF000
:1024F000D9FF60004FF0DAFF10EE02F01250E12633
:102500001350E2226F007BFFE6FF6F0077FFE5FFCD
:10251000020E125E000E135A1406D8A0150615BE40
:1025200096EF12F094EF12F076EF12F01200000E18
:10253000126E000E136E000E146E000E156E0AA0C1
:10254000A4EF12F0A6EF12F0AEEF12F00E5012262A
:102550000F5013221050142211501522D8900E360D
:102560000F3610361136D8900D320C320B320A323B
:102570000A500B100C100D10D8A4C1EF12F0C3EFCD
:1025800012F09FEF12F012C00AF013C00BF014C04B
:102590000CF015C00DF01200630E0A240E6E000E32
:1025A0000B200F6E600033F0D9FF600037F0DAFFC8
:1025B0000E50DE1807E10F50DE18D8A4E2EF12F03B
:1025C000E4EF12F0F2EF12F0600033F0D9FF600098
:1025D00037F0DAFF60002BF0DEFF60002FF0DDFF48
:1025E000FBEF12F0600033F0D9FF600037F0DAFF44
:1025F000DE2A000EDD2212000A6E4950D8B403EF25
:1026000013F005EF13F0FDEF12F0390193B90BEF62
:1026100013F00DEF13F012EF13F060002BF0EAFD52
:1026200028EF13F09399780E4B24D96EDA6A000ED6
:10263000DA2260002BF0DFFF4B2A070E4B6423EFFA
:1026400013F025EF13F027EF13F0000E4B6E490641
:1026500093891200000E3E01DE6F000EDF6F000E48
:10266000E06F000EE16F000EE46F000EE56F000EEC
:10267000EA6F000EEC6F000EF16F000EF36F000EAC
:10268000F46F000EF56F000EF66F000EF76F010E7F
:10269000F96F000EFA6F000EFB6F000EFC6F030E59
:1026A000FD6F000EFE6F1F0EFF6F840EF86F12009D
:1026B000000E126E000E116E71EF13F011500B240C
:1026C0000F6E12500C20106E60003FF0F6FF60009D
:1026D00043F0F7FFF86A0800F550FCEC12F0114ADD
:1026E000122A0D50115C1250800A0F6E0E50800A93
:1026F0000F58D8A07EEF13F080EF13F05EEF13F0C9
:1027000012004650D8B487EF13F089EF13F081EF31
:1027100013F0680E4724D96EDA6A000EDA22DF5011
:10272000456E700E4724D96EDA6A000EDA22DF5049
:102730000A6E472A070E4764A0EF13F0A2EF13F0CA
:10274000A4EF13F0000E476E390193974606938766
:102750000A50120020EE64F00A50D9260B50DA22FB
:1027600060002BF0DEFF60002FF0DDFF20EE66F052
:102770000A50D9260B50DA2260002BF0DEFF6000F1
:102780002FF0DDFF20EE68F00A50D9260B50DA2238
:10279000DF6A20EE69F00A50D9260B50DA22010ECA
:1027A000DF6E1200080E4960D8EF13F0DAEF13F075
:1027B000F1EF13F0780E4A24D96EDA6A000EDA22AD
:1027C000DF503D01EA6F4A2A070E4A64EAEF13F030
:1027D000ECEF13F0EEEF13F0000E4A6E492AF3EF20
:1027E00013F03901939912003031323334353637D2
:1027F000383941424344454600000C0094FF3CFDFB
:1028000064FC1C0A302D704F704F302D1C0A64FC84
:102810003CFD94FF0C00000000000C0094FF3CFD08
:1028200064FC1C0A302D704F056E600017F0F1FE3D
:102830003E01F88FF89DF881F8B121EF14F023EFF5
:1028400014F01CEF14F0F051046E036AEF510324EE
:10285000016E000E0420026E1200040EA26E000E25
:10286000A16E000EA36EF10E9F6E000E9E6E3901DA
:10287000A7919781000E0A6E000E0B6EF4EC14F017
:10288000C70EA06E1200010EAE6E000EAD6E000EF1
:10289000AF6EC70EAB6E000EAA6E3901A49594857B
:1028A000000E0A6E000E0B6EF9EC14F0A00EAC6E6A
:1028B0001200700E4824D96EDA6A000EDA226F0018
:1028C000A3F7DFFF482A070E486469EF14F06BEFA7
:1028D00014F06DEF14F0000E486E462A120008EC5A
:1028E00015F084EC14F020EC11F0B5EC14F0FEECD3
:1028F00014F02AEC13F02DEC14F043EC14F073EC0C
:1029000011F0A8EC14F01200000E3901C06F000E97
:10291000C16F000EC26F000EC36F000EC46F000EB9
:10292000C56F000EC66F000EC76F12000A6E010E53
:102930003D01126F60002BF011FD3901A2A9A3EF38
:1029400014F0A5EF14F09DEF14F03D0110511200AA
:10295000020E3D01146F400E156F000E166F000E33
:102960001C6F030E196FC4961200600E3901D96FE7
:10297000000EDB6F000EDD6F080EDF6F000EDE6FE6
:102980001200FF0EFCEC12F0FF0EFCEC12F0FF0E3A
:10299000FCEC12F0120020EE68F00A50D9260B5021
:1029A000DA22DF5012003901A791000E0001A56F55
:1029B000010EA46F12000AC04EF00BC04FF01200BF
:1029C0000AC050F00BC051F012000AC0BEF00BC09C
:1029D000BFF012000AC04CF00BC04DF012000AC04C
:1029E000BCF00BC0BDF012000AC0F7F10BC0F8F14B
:1029F00012000AC0F9F10BC0FAF112008A0E3E0172
:0F2A0000C16F120059EC14F0120003FFFFFF002A
:0A2A1000D29A12004D0112001200CC
:020000040020DA
:10000000FFFFFFFFFFFFFFFFFFFFFFFFFFFFFFFF00
:020000040030CA
:0A0000008CFFF7FF9FFFFFFFFFFFDB
:00000001FF
