:040000000DEF00F010
:0400080080EF0EF087
:06001800FF0016EF0CF0E2
:101000000002400003007265616456616C2E7661D7
:101010006C3D3078007661302E76616C3D30780022
:101020007661312E76616C3D3078007072696E7435
:051030002064700000C7
:1010360049EC0EF0000E0001A56F000EA66F000E23
:10104600A76F000EA86FD28E000EE9EC0AF0BC84E2
:10105600BC94400E6EEC0EF0060E6EEC0EF0BC84E8
:1010660020EE65F01F0EDE6AE806FDE220EE85F052
:101076001F0EDE6AE806FDE2650E0001AB6F000E8C
:10108600AC6F850EAD6F000EAE6FDD0EAF6F000E4E
:10109600B06F000EAA6F000EA96F20EEB2F0070E19
:1010A600DE6AE806FDE20001DA05DB11D8A45EEF90
:1010B60008F060EF08F056EF08F0BD8C000EDB6F0D
:1010C600000EDA6F060E606FCAC061F0CBC062F028
:1010D600CCC063F0CDC064F0606774EF08F07CEFBD
:1010E60008F064356433633362336133602F6FEF26
:1010F60008F061C0D0F062C0D1F0060E0001606F4A
:10110600C6C061F0C7C062F0C8C063F0C9C064F071
:10111600606790EF08F098EF08F064356433633346
:1011260062336133602F8BEF08F061C0CEF062C08E
:10113600CFF0000E0001CA6F000ECB6F000ECC6F11
:10114600000ECD6F000EC66F000EC76F000EC86F83
:10115600000EC96FA905AA11D8A4B4EF08F0B6EF1E
:1011660008F0DEEF08F02B0E096E100E0A6E000E68
:101176000C6E080E0B6ECDEC0DF0D8EC0EF064EC98
:101186000CF00001606F6051B26FB36B64EC0CF051
:101196000001606F6051B46FB56B64EC0CF0000138
:1011A600606F6051B66FB76B64EC0CF00001606F56
:1011B6006051B86FB96BB205B311D8B4E5EF08F05A
:1011C600E7EF08F002EF09F0B405B511D8B4EEEF79
:1011D60008F0F0EF08F002EF09F0B605B711D8B441
:1011E600F7EF08F0F9EF08F002EF09F0B805B911CA
:1011F600D8A400EF09F002EF09F00CEF09F0D8C00F
:10120600D4F0D9C0D5F0D6C0D2F0D7C0D3F0B0EF65
:1012160009F0020EB219B311D8B414EF09F016EFA3
:1012260009F034EF09F0020EB419B511D8B41EEF67
:1012360009F020EF09F034EF09F0020EB619B711E4
:10124600D8B428EF09F02AEF09F034EF09F0020EBE
:10125600B819B911D8A432EF09F034EF09F056EFF6
:1012660009F0150E096E100E0A6E000E0C6E0A0EAF
:101276000B6ECDEC0DF00001D951A2EC0EF0D8ECBE
:101286000EF0200E096E100E0A6E000E0C6E0A0E7F
:101296000B6ECDEC0DF00001D851A2EC0EF0D8EC9F
:1012A6000EF0B0EF09F0040EB219B311D8B45EEF28
:1012B60009F060EF09F07EEF09F0040EB419B511DC
:1012C600D8B468EF09F06AEF09F07EEF09F0040E72
:1012D600B619B711D8B472EF09F074EF09F07EEFC2
:1012E60009F0040EB819B911D8A47CEF09F07EEF05
:1012F60009F0B0EF09F0060E096E100E0A6E000E28
:101306000C6E0E0E0B6ECDEC0DF00001D651D25DBB
:10131600086ED751D359096EF6EC0DF0D890093204
:101326000832D89009320832D8900932083208506B
:101336000001B16F010E086EB151AFEC0CF0B2ECCA
:101346000EF0000E086E0001B151AFEC0CF0B2ECDD
:101356000EF0D8EC0EF00001B12B000E0001AA6FC2
:10136600010EA96FD0C065F0D1C066F0ABC014F015
:10137600ACC015F0AFC016F0B0C017F0000E196E75
:10138600100E186E000E1B6E080E1A6E000E1C6EE6
:1013960006EC0AF014C0D8F015C0D9F0ABC008F0BE
:1013A600ACC009F0000E0B6E100E0A6EF3EC0CF0DA
:1013B600CEC085F0CFC086F0ADC014F0AEC015F03B
:1013C600AFC016F0B0C017F0000E196E100E186EF2
:1013D600000E1B6E080E1A6E000E1C6E06EC0AF04E
:1013E60014C0D6F015C0D7F0ADC008F0AEC009F0F5
:1013F600000E0B6E100E0A6EF3EC0CF0BD9C56EF51
:1014060008F00DEF00F0000E316E000E326E000E89
:10141600336E000E346E000E366E000E356E87EF9C
:101426000AF035C01DF036C01EF0D8901D361E36A7
:1014360018C01FF019C020F0D8901F3620361F5054
:101446001424216E20501520226E1D50215C236E1F
:101456001E502258246EFE0E2324D96EFF0E242021
:10146600DA6E6F0078FF25F06F0074FF26F025C056
:1014760027F026C028F0000E28BEFF0E296E2A6E21
:10148600D8903534D96E3634DA6E1450D9261550C4
:10149600DA226F0078FF2BF06F0074FF2CF02BC060
:1014A6002DF02CC02EF0000E2EBEFF0E2F6E306ECD
:1014B60027502D24086E28502E20096E29502F20E3
:1014C6000A6E2A5030200B6ED8903534D96E3634D9
:1014D600DA6E1650D9261750DA226F0078FF0CF014
:1014E6006F0074FF0DF0000E0DBEFF0E0E6E0F6E38
:1014F60036EC0DF008503126095032220A503322BC
:101506000B503422354A362A1A50355C3650800A3A
:101516001D6E1B50800A1D58D8A094EF0AF096EF56
:101526000AF014EF0AF01C04D8A49CEF0AF09EEF10
:101536000AF0E4EF0AF01AC01DF01BC01EF0D890A6
:101546001D361E361D5014241F6E1E501520206E8B
:10155600FE0E1F24D96EFF0E2020DA6E6F0078FF74
:1015660008F06F0074FF09F0000E09BEFF0E0A6E48
:101576000B6E1AC021F01BC022F0D89021362236FD
:1015860021501624236E22501720246EFE0E23248B
:10159600D96EFF0E2420DA6E6F0078FF0CF06F0014
:1015A60074FF0DF0000E0DBEFF0E0E6E0F6E36ECC4
:1015B6000DF00850315E0950325A0A50335A0B501A
:1015C600345A33C014F034C015F01200096E3D01D0
:1015D60014BFF0EF0AF0F2EF0AF056EF0BF00950E5
:1015E600050D010EF324F66E100EF420F76EF86A60
:1015F600000EF82208006F00D7FF14FD0950050DF4
:10160600010EF326000EF422010EF324F66E100EE0
:10161600F420F76EF86A000EF82208006F00D7FF74
:1016260015FD0950050D020EF326000EF422010EDB
:10163600F324F66E100EF420F76EF86A000EF82208
:101646000800F5500309166F0950050D030EF32621
:10165600000EF422010EF324F66E100EF420F76E3F
:10166600F86A000EF82208006F00D7FF19FD09502E
:10167600050D040EF326000EF422010EF324F66E79
:10168600100EF420F76EF86A000EF82208006F00BC
:10169600D4FF08F0084608460846C4500818F70B59
:1016A6000818C46E148F12003901A4958DEF0BF043
:1016B600BD8E040E1AEC0EF001C053F002C054F0B9
:1016C60053500001CA275450CB23000ECC23000EE2
:1016D600CD23010E556EAAEF0BF0000E1AEC0EF09C
:1016E60001C051F002C052F051500001C6275250BD
:1016F600C723000EC823000EC923020E556EAAEF9B
:101706000BF0BD9E030E556EAAEF0BF0000E556E44
:10171600AAEF0BF05550066E076A0750000AD8B4B8
:1017260097EF0BF0AAEF0BF00650000AD8B45BEF68
:101736000BF0010AD8B470EF0BF0030AD8B484EFAB
:101746000BF0010AD8B489EF0BF0AAEF0BF050BEEC
:10175600B3EF0BF05004D8A0B3EF0BF0B5EF0BF0DE
:10176600C0EF0BF0000E0001DB6F010EDA6F000E0A
:10177600506E000E4F6EC2EF0BF04F4A502A120009
:10178600000EBE6E000EBD6E000EBA6E000EBB6E73
:10179600000EBC6E070EC66EC268C368930EC46E9A
:1017A6003F0EC56E3A017069670E606F5069070E8D
:1017B600806F4069000E716F000E816F000E516FD1
:1017C600000E416F000E616F000E5A6F000E5B6FC8
:1017D600000E6A6F000E6B6F000E7A6F000E7B6F45
:1017E600000E826F000E426F000E526F000E626F87
:1017F600000E726F4369536963697369070E836FDD
:1018060044695469646974690F0E846F130EDE6F40
:101816001E0E136F1F0E156F130E166F170EE56F44
:10182600140EDF6F1200240EF66E1D0EF76E000EFC
:10183600F86E00EE40F110EE20F009006F00D7FFC1
:10184600EEFFE550E150F9E1D40EF66E1D0EF76E8F
:10185600000EF86E00EEDDF010EE10F009006F00DD
:10186600D7FFEEFFE550E150F9E1C40EF66E1D0E0E
:10187600F76E000EF86E00EE37F010EE10F009006D
:101886006F00D7FFEEFFE550E150F9E100EE00F101
:10189600400EEE6AE806FDE100EEBAF0230EEE6AAF
:1018A600E806FDE100EE4FF0080EEE6AE806FDE1FF
:1018B600080ED56E000ED66E000ED76E00011BEF19
:1018C60008F03901A3A76AEF0CF06CEF0CF064EF97
:1018D6000CF0000E566E3D01F9A774EF0CF076EF92
:1018E6000CF083EF0CF0568202D883EF0CF0050063
:1018F600FA6E4D50FD6E4E50FE6EFF6AFA501200A3
:101906003D01F9A389EF0CF08BEF0CF098EF0CF08A
:10191600568402D898EF0CF00500FA6E4B50FD6E17
:101926004C50FE6EFF6AFA5012005650D8B49EEF25
:101936000CF0A0EF0CF0ACEF0CF002D8ACEF0CF012
:101946000500FA6E4950FD6E4A50FE6EFF6AFA5067
:1019560012003D01E8511200206E20EE37F010EE25
:101966000AF00F0E6F006FFFE3FFE806FBE2085078
:10197600D8B4C0EF0CF0C2EF0CF0C8EF0CF0000EBC
:101986001B6EF00E1A6ECCEF0CF0000E1B6E0F0ED7
:101996001A6E1AC021F00850D8B4D4EF0CF0D6EF66
:1019A6000CF0E1EF0CF020502114096E093A0F0EED
:1019B600091609501C6E1D6AE7EF0CF02050211421
:1019C600096E09501C6E1D6A1CC01FF00A0E1F24EA
:1019D600D96EDA6A000EDA22DF501E6E1E50120031
:1019E6000AC00CF00BC00DF0D8900C360D360C501A
:1019F60008240E6E0D5009200F6EFC0E0E24106E7C
:101A0600FF0E0F20116EFE0E0A24126EFF0E0B2023
:101A1600136E13BE13EF0DF011EF0DF015EF0DF071
:101A260035EF0DF0600043F0D9FF600047F0DAFFB4
:101A360010EE02F01050E1261150E2226F007BFFFB
:101A4600E6FF6F0077FFE5FF020E105E000E115AEB
:101A56001206D8A0130613BE35EF0DF033EF0DF0C6
:101A660015EF0DF01200000E106E000E116E000E36
:101A7600126E000E136E08A043EF0DF045EF0DF049
:101A86004DEF0DF00C5010260D5011220E50122263
:101A96000F501322D8900C360D360E360F36D890CE
:101AA6000B320A3209320832085009100A100B109C
:101AB600D8A460EF0DF062EF0DF03EEF0DF010C010
:101AC60008F011C009F012C00AF013C00BF01200A2
:101AD600000E3D01EC6F000EED6F000EEE6F000E76
:101AE600EF6F000EF06F000EF16FB00EF26F800E0A
:101AF600F36F000EF46F1E0EF56F000EF66F000EFC
:101B0600F76F000EF86F000EF96F000EFA6F1A0EDF
:101B1600086E1E0E096EF7EC0EF0180E086E1E0EFD
:101B2600096EF2EC0EF01C0E086E1E0E096EFCEC31
:101B36000EF0000E566E1200000E3E01DE6F000E15
:101B4600DF6F000EE06F000EE16F000EE46F000E17
:101B5600E56F000EEA6F000EEC6F000EF16F000EDF
:101B6600F36F000EF46F000EF56F000EF66F000EA9
:101B7600F76F010EF96F000EFA6F000EFB6F000E85
:101B8600FC6F030EFD6F000EFE6F070EFF6F840ED7
:101B9600F86F1200000E106E000E0F6EE6EF0DF0DD
:101BA6000F5009240D6E10500A200E6E600037F09B
:101BB600F6FF60003BF0F7FFF86A0800F550B2EC5C
:101BC6000EF00F4A102A0B500F5C1050800A0D6E53
:101BD6000C50800A0D58D8A0F3EF0DF0F5EF0DF07C
:101BE600D3EF0DF0120009BE01EF0EF0095008E127
:101BF6000804D8A001EF0EF003EF0EF009EF0EF087
:101C060008C00CF009C00DF015EF0EF008C00AF080
:101C160009C00BF00A1E0B1E0A4A0B2A0AC00CF05A
:101C26000BC00DF00CC008F00DC009F01200056ED7
:101C3600600017F0F1FE3E01F88FF89DF881F8B1CB
:101C460027EF0EF029EF0EF022EF0EF0F051046EA2
:101C5600036AEF510324016E000E0420026E120087
:101C6600010EAE6E000EAD6E000EAF6EC70EAB6E01
:101C7600000EAA6E3901A4959485000E086E000E1A
:101C8600096E01EC0FF0A00EAC6E12000AEC0FF01C
:101C96005CEC0EF0C3EC0BF0CCEC0EF006EC0FF0A7
:101CA6009FEC0DF033EC0EF06BEC0DF0BFEC0EF08C
:101CB6001200000E3901C06F000EC16F000EC26F18
:101CC600000EC36F000EC46F000EC56F000EC66F08
:101CD600000EC76F1200086E010E3D01126F600004
:101CE60023F011FD3901A2A97BEF0EF07DEF0EF076
:101CF60075EF0EF03D0110511200390194A586EFE3
:101D06000EF088EF0EF091EF0EF0A4A58DEF0EF019
:101D16008FEF0EF091EF0EF057EC0BF01100000074
:101D26000C0094FF3CFD64FC1C0A302D704F704F74
:101D3600302D1C0A64FC3CFD94FF0C000000226E52
:101D4600010E086E2250AFEC0CF0B2EC0EF0000E55
:101D5600086E2250AFEC0CF0B2EC0EF01200086EDA
:101D66003901A3A9B9EF0EF0BBEF0EF0B3EF0EF0F9
:101D7600600023F0EAFD1200020E3D01146F400ED2
:101D8600156F000E166F000E1C6F030E196FC496AA
:101D96001200600E3901D96F000EDB6F000EDD6F89
:101DA600080EDF6F000EDE6F1200FF0EB2EC0EF0B3
:101DB600FF0EB2EC0EF0FF0EB2EC0EF01200303158
:101DC60032333435363738394142434445460000CC
:101DD6000C0094FF3CFD64FC1C0A302D704F08C0BB
:101DE6004BF009C04CF0120008C04DF009C04EF08F
:101DF600120008C049F009C04AF0120008C047F0B6
:101E060009C048F012008A0E3E01C16F1200D29A34
:081E160012001200120012007C
:020000040020DA
:10000000FFFFFFFFFFFFFFFFFFFFFFFFFFFFFFFF00
:020000040030CA
:0A0000008CFFF7FF9FFFFFFFFFFFDB
:00000001FF
