:040000000DEF00F010
:0400080062EF0BF0A8
:06001800FF0045EF0AF0B5
:0710000000024000030000A4
:101008002BEC0BF0000E0001A06F000EA16F000E7C
:10101800A26F000EA36FD28E000ECAEC08F0BC843B
:10102800BC94400E50EC0BF0000E50EC0BF0BC845E
:1010380020EE60F01F0EDE6AE806FDE220EE80F08A
:101048001F0EDE6AE806FDE2000E0001A46FE5054A
:10105800E611D8A432EF08F034EF08F02BEF08F0CF
:10106800BD8C000EE66F000EE56F060E246EDDC027
:1010780025F0DEC026F0DFC027F0E0C028F02466A7
:1010880048EF08F050EF08F028342832273226328B
:101098002532242E43EF08F025C0E3F026C0E4F003
:1010A800060E246ED9C025F0DAC026F0DBC027F082
:1010B800DCC028F0246663EF08F06BEF08F02834F2
:1010C8002832273226322532242E5EEF08F025C03A
:1010D800E1F026C0E2F0000E0001DD6F000EDE6FC9
:1010E800000EDF6F000EE06F000ED96F000EDA6F92
:1010F800000EDB6F000EDC6F720E74EC0BF0650EE9
:1011080074EC0BF0610E74EC0BF0640E74EC0BF0E5
:10111800560E74EC0BF0610E74EC0BF06C0E74EC64
:101128000BF02E0E74EC0BF0760E74EC0BF0610ED7
:1011380074EC0BF06C0E74EC0BF03D0E74EC0BF0D1
:10114800300E74EC0BF0780E74EC0BF0010E086E98
:101158000001A451F7EC09F074EC0BF0000E086ED6
:101168000001A451F7EC09F074EC0BF0FF0E74ECDD
:101178000BF0FF0E74EC0BF0FF0E74EC0BF000019B
:10118800A42BBD9C2BEF08F00DEF00F0096E3D017C
:1011980014BFD1EF08F0D3EF08F037EF09F009508A
:1011A800050D010EF324F66E100EF420F76EF86AA2
:1011B800000EF82208006F00D7FF14FD0950050D36
:1011C800010EF326000EF422010EF324F66E100E23
:1011D800F420F76EF86A000EF82208006F00D7FFB7
:1011E80015FD0950050D020EF326000EF422010E1E
:1011F800F324F66E100EF420F76EF86A000EF8224B
:101208000800F5500309166F0950050D030EF32663
:10121800000EF422010EF324F66E100EF420F76E81
:10122800F86A000EF82208006F00D7FF19FD095070
:10123800050D040EF326000EF422010EF324F66EBB
:10124800100EF420F76EF86A000EF82208006F00FE
:10125800D4FF08F0084608460846C4500818F70B9B
:101268000818C46E148F12003901A4956EEF09F0A6
:10127800BD8E040EE4EC0AF001C031F002C032F079
:1012880031500001DD273250DE23000EDF23000E2F
:10129800E023010E386E8BEF09F0000EE4EC0AF043
:1012A80001C02FF002C030F02F500001D927305074
:1012B800DA23000EDB23000EDC23020E386E8BEFE0
:1012C80009F0BD9E030E386E8BEF09F0000E386EE4
:1012D8008BEF09F03850066E076A0750000AD8B439
:1012E80078EF09F08BEF09F00650000AD8B43CEF0C
:1012F80009F0010AD8B451EF09F0030AD8B465EF30
:1013080009F0010AD8B46AEF09F08BEF09F02EBE94
:1013180094EF09F02E04D8A094EF09F096EF09F0A5
:10132800A1EF09F0000E0001E66F010EE56F000E57
:101338002E6E000E2D6EA3EF09F02D4A2E2A1200F4
:10134800000EBE6E000EBD6E000EBA6E000EBB6EB5
:10135800000EBC6E070EC66EC268C368930EC46EDC
:101368003F0EC56E3A017069670E606F5069070ECF
:10137800806F4069000E716F000E816F000E516F13
:10138800000E416F000E616F000E5A6F000E5B6F0A
:10139800000E6A6F000E6B6F000E7A6F000E7B6F87
:1013A800000E826F000E426F000E526F000E626FC9
:1013B800000E726F4369536963697369070E836F1F
:1013C80044695469646974690F0E846F130EDE6F83
:1013D8001E0E136F1F0E156F130E166F170EE56F87
:1013E800140EDF6F1200226E20EE3AF010EE0CF0B1
:1013F8000F0E6F006FFFE3FFE806FBE20850D8B45A
:1014080008EF0AF00AEF0AF010EF0AF0000E1D6E5E
:10141800F00E1C6E14EF0AF0000E1D6E0F0E1C6EFF
:101428001CC023F00850D8B41CEF0AF01EEF0AF0D5
:1014380035EF0AF0235022C009F00A6A09BE0A06ED
:101448000916000E0A16040E0B6E0A340A32093207
:101458000B2E29EF0AF009C01EF00AC01FF039EF61
:101468000AF0235022141E6E1F6A1EC021F00C0EB3
:101478002124D96EDA6A000EDA22DF50206E20505D
:101488001200FA0EF66E150EF76E000EF86E00EEEC
:10149800A5F010EE30F009006F00D7FFEEFFE55021
:1014A800E150F9E1340EF66E170EF76E000EF86E85
:1014B80000EE3AF010EE10F009006F00D7FFEEFFD3
:1014C800E550E150F9E100EE00F1400EEE6AE80661
:1014D800FDE100EED5F0120EEE6AE806FDE100EE41
:1014E80029F0110EEE6AE806FDE1080ED56E000E31
:1014F800D66E000ED76E000104EF08F0000E3D0115
:10150800EC6F000EED6F000EEE6F000EEF6F000E29
:10151800F06F000EF16FB00EF26F800EF36F000ED9
:10152800F46F070EF56F000EF66F000EF76F000EE2
:10153800F86F000EF96F000EFA6F000E086E000EBD
:10154800096EA7EC0BF0000E086E000E096EA2ECF7
:101558000BF0000E086E000E096EACEC0BF0000EDE
:10156800396E1200000E3E01DE6F000EDF6F000EB6
:10157800E06F000EE16F000EE46F000EE56F000EE5
:10158800EA6F000EEC6F000EF16F000EF36F000EA5
:10159800F46F000EF56F000EF66F000EF76F010E78
:1015A800F96F000EFA6F000EFB6F000EFC6F030E52
:1015B800FD6F000EFE6F070EFF6F840EF86F1200AE
:1015C800056E600017F0F1FE3E01F88FF89DF88176
:1015D800F8B1F1EF0AF0F3EF0AF0ECEF0AF0F0518E
:1015E800046E036AEF510324016E000E0420026E9C
:1015F800120000000C0094FF3CFD64FC1C0A302D16
:10160800704F704F302D1C0A64FC3CFD94FF0C0099
:10161800000000000C0094FF3CFD64FC1C0A302D07
:10162800704F010EAE6E000EAD6E000EAF6E630E03
:10163800AB6E000EAA6E3901A4959485000E086E53
:10164800000E096EB1EC0BF0900EAC6E1200BAEC05
:101658000BF03EEC0BF0A4EC09F08EEC0BF0B6ECC2
:101668000BF0B6EC0AF015EC0BF082EC0AF081EC0A
:101678000BF01200000E3901C06F000EC16F000E92
:10168800C26F000EC36F000EC46F000EC56F000E50
:10169800C66F000EC76F1200086E010E3D01126F73
:1016A800600023F011FD3901A2A95DEF0BF05FEF97
:1016B8000BF057EF0BF03D0110511200390194A5C2
:1016C80068EF0BF06AEF0BF073EF0BF0A4A56FEF68
:1016D8000BF071EF0BF073EF0BF038EC09F0110021
:1016E800086E3901A3A97BEF0BF07DEF0BF075EFC6
:1016F8000BF0600023F0EAFD1200020E3D01146FAA
:10170800400E156F000E166F000E1C6F030E196F3A
:10171800C4961200600E3901D96F000EDB6F000EFF
:10172800DD6F050EDF6F000EDE6F120030313233D1
:1017380034353637383941424344454608C04EF0BF
:1017480009C04FF0120008C050F009C051F0120053
:1017580008C04CF009C04DF0120008C04AF009C09A
:101768004BF012008A0E3E01C16F1200D29A12008D
:020000040020DA
:10000000FFFFFFFFFFFFFFFFFFFFFFFFFFFFFFFF00
:020000040030CA
:0A000000ECFFF7FF9FFFFFFFFFFF7B
:00000001FF
