:040000000DEF00F010
:040008009AEF0FF06C
:06001800FF0008EF11F0EB
:101000000002400003007072696E74206470006119
:101010002E76616C3D307800622E76616C3D3078C2
:101020000000B2EC13F0000E0201006F000E016F21
:10103000000E026F000E036FD28E4D0E0A6E010E6F
:101040000B6EEDEC12F0000EC0EC0EF0BC84BC9404
:10105000400ED9EC13F00001BB51D9EC13F0BC8465
:1010600020EE04F21F0EDE6AE806FDE220EE24F216
:101070001F0EDE6AE806FDE2040E0201446F020E56
:10108000456F240E466F020E476FE70E486F010E44
:10109000496F060E0B6E100E0C6E000E0E6E080ED3
:1010A0000D6E9BEC12F004EC14F0060E0B6E100E9D
:1010B0000C6E000E0E6E080E0D6E9BEC12F004EC22
:1010C00014F0060E0B6E100E0C6E000E0E6E080E57
:1010D0000D6E9BEC12F004EC14F0060E0B6E100E6D
:1010E0000C6E000E0E6E080E0D6E9BEC12F004ECF2
:1010F00014F00001A405A511D8A481EF08F083EF36
:1011000008F061EF0BF0000EA56F000EA46F060E45
:10111000B06F8CC0B1F08DC0B2F08EC0B3F08FC094
:10112000B4F0B06796EF08F09EEF08F0B435B43332
:10113000B333B233B133B02F91EF08F0B1C09AF0AE
:10114000B2C09BF0060E0001B06F88C0B1F089C03C
:10115000B2F08AC0B3F08BC0B4F0B067B2EF08F061
:10116000BAEF08F0B435B433B333B233B133B02F80
:10117000ADEF08F0B1C098F0B2C099F0000E0001D8
:101180008C6F000E8D6F000E8E6F000E8F6F000E35
:10119000886F000E896F000E8A6F000E8B6F9AC0E9
:1011A00004F29BC005F244C216F045C217F048C2D3
:1011B00018F049C219F0000E1B6E100E1A6E000EC8
:1011C0001D6E080E1C6E000E1E6EE7EC0BF016C0B6
:1011D000A2F017C0A3F044C20AF045C20BF0000E03
:1011E0000D6E100E0C6E97EC11F098C024F299C0A1
:1011F00025F246C216F047C217F048C218F049C29D
:1012000019F0000E1B6E100E1A6E000E1D6E080EE9
:101210001C6E000E1E6EE7EC0BF016C0A0F017C09F
:10122000A1F046C20AF047C20BF0000E0D6E100E80
:101230000C6E97EC11F0000196059711D8A423EFDE
:1012400009F025EF09F029EF09F08BEC0DF061EFC3
:101250000BF094059511D8A430EF09F032EF09F0A6
:10126000A2EF0AF0050E60196111D8B43AEF09F047
:101270003CEF09F05AEF09F0050E62196311D8B47A
:1012800044EF09F046EF09F05AEF09F0050E641932
:101290006511D8B44EEF09F050EF09F05AEF09F09C
:1012A000050E66196711D8A458EF09F05AEF09F036
:1012B0005EEF09F0000EBB6F92EF0AF0060E6019A8
:1012C0006111D8B466EF09F068EF09F086EF09F014
:1012D000060E62196311D8B470EF09F072EF09F0CD
:1012E00086EF09F0060E64196511D8B47AEF09F09B
:1012F0007CEF09F086EF09F0060E66196711D8A495
:1013000084EF09F086EF09F08AEF09F0010EBB6F58
:1013100092EF0AF0070E60196111D8B492EF09F04C
:1013200094EF09F0B2EF09F0070E62196311D8B417
:101330009CEF09F09EEF09F0B2EF09F0070E641977
:101340006511D8B4A6EF09F0A8EF09F0B2EF09F0E3
:10135000070E66196711D8A4B0EF09F0B2EF09F0D3
:10136000B6EF09F0020EBB6F92EF0AF0080E60199B
:101370006111D8B4BEEF09F0C0EF09F0DEEF09F05B
:10138000080E62196311D8B4C8EF09F0CAEF09F06A
:10139000DEEF09F0080E64196511D8B4D2EF09F038
:1013A000D4EF09F0DEEF09F0080E66196711D8A432
:1013B000DCEF09F0DEEF09F0E2EF09F0030EBB6F9E
:1013C00092EF0AF0090E60196111D8B4EAEF09F042
:1013D000ECEF09F00AEF0AF0090E62196311D8B4B4
:1013E000F4EF09F0F6EF09F00AEF0AF0090E6419BC
:1013F0006511D8B4FEEF09F000EF0AF00AEF0AF029
:10140000090E66196711D8A408EF0AF00AEF0AF06E
:101410000EEF0AF0040EBB6F92EF0AF00A0E60198D
:101420006111D8B416EF0AF018EF0AF036EF0AF09F
:101430000A0E62196311D8B420EF0AF022EF0AF005
:1014400036EF0AF00A0E64196511D8B42AEF0AF0D3
:101450002CEF0AF036EF0AF00A0E66196711D8A4CD
:1014600034EF0AF036EF0AF03AEF0AF0050EBB6FE0
:1014700092EF0AF00B0E60196111D8B442EF0AF036
:1014800044EF0AF062EF0AF00B0E62196311D8B450
:101490004CEF0AF04EEF0AF062EF0AF00B0E6419FF
:1014A0006511D8B456EF0AF058EF0AF062EF0AF06F
:1014B0000B0E66196711D8A460EF0AF062EF0AF00C
:1014C00066EF0AF0060EBB6F92EF0AF00C0E601981
:1014D0006111D8B46EEF0AF070EF0AF08EEF0AF0E7
:1014E0000C0E62196311D8B478EF0AF07AEF0AF0A3
:1014F0008EEF0AF00C0E64196511D8B482EF0AF071
:1015000084EF0AF08EEF0AF00C0E66196711D8A46A
:101510008CEF0AF08EEF0AF092EF0AF0070EBB6F25
:1015200092EF0AF0BC94400ED9EC13F00001BB51CD
:10153000D9EC13F0BC84000E0001956F000E946F7F
:1015400061EF0BF092059311D8A4A9EF0AF0ABEF6D
:101550000AF061EF0BF060056111D8B4B2EF0AF048
:10156000B4EF0AF0CFEF0AF062056311D8B4BBEF15
:101570000AF0BDEF0AF0CFEF0AF064056511D8B4A8
:10158000C4EF0AF0C6EF0AF0CFEF0AF06605671164
:10159000D8A4CDEF0AF0CFEF0AF0D9EF0AF0A2C03D
:1015A0009EF0A3C09FF0A0C09CF0A1C09DF061EF91
:1015B0000BF0020E60196111D8B4E1EF0AF0E3EF0D
:1015C0000AF001EF0BF0020E62196311D8B4EBEFD1
:1015D0000AF0EDEF0AF001EF0BF0020E641965114D
:1015E000D8B4F5EF0AF0F7EF0AF001EF0BF0020EB6
:1015F00066196711D8A4FFEF0AF001EF0BF061EF55
:101600000BF04D0E126E010E136E0F0E146E100EB7
:10161000156ECDEC0CF0010E0A6E0001A15153ECD9
:1016200011F00001A76F000E0A6EA15153EC11F0EA
:101630000001A86F000EA96F4D0E126E010E136E01
:10164000A70E146E000E156ECDEC0CF04D0E126E42
:10165000010E136EBC0E146E000E156ECDEC0CF068
:101660004D0E126E010E136E180E146E100E156EC6
:10167000CDEC0CF0010E0A6E0001A05153EC11F0FC
:101680000001A76F000E0A6EA05153EC11F000018B
:10169000A86F000EA96F4D0E126E010E136EA70EED
:1016A000146E000E156ECDEC0CF04D0E126E010E88
:1016B000136EBC0E146E000E156ECDEC0CF061EFC7
:1016C0000BF04850D8B467EF0BF069EF0BF091EFD7
:1016D0000BF0C4EC12F00001B06FB16BD8909035F4
:1016E000D96E9135DA6E600ED926000EDA226000CE
:1016F000C3F2DEFF6000C7F2DDFF904B912B91BF7C
:101700008BEF0BF0915109E1040E905DD8A08BEFA7
:101710000BF08DEF0BF091EF0BF0000E916F000EC0
:10172000906F390193B997EF0BF099EF0BF079EFC8
:1017300008F04D0E0A6E010E0B6E0EEC14F000094F
:10174000D8B4A5EF0BF0A7EF0BF079EF08F000018C
:1017500092059311D8A4AFEF0BF0B1EF0BF079EF36
:1017600008F086C087F085C086F084C085F04D0EF5
:10177000126E010E136E3FEC0EF00001846F87298C
:10178000D8A4C5EF0BF0C7EF0BF0E0EF0BF0862904
:10179000D8A4CDEF0BF0CFEF0BF0E0EF0BF08529E5
:1017A000D8A4D5EF0BF0D7EF0BF0E0EF0BF0200E45
:1017B0008419D8B4DEEF0BF0E0EF0BF079EF08F00E
:1017C00084513FEC12F079EF08F00DEF00F0000EBD
:1017D0000001AA6F000EAB6F000EAC6F000EAD6F74
:1017E000000EAF6F000EAE6F6AEF0CF0AEC01FF0D0
:1017F000AFC020F0D8901F3620361AC021F01BC091
:1018000022F0D8902136223621501624236E225001
:101810001720246E1F50235C256E20502458266EFE
:10182000FE0E2524D96EFF0E2620DA6E6F0078FF9B
:1018300027F06F0074FF28F027C029F028C02AF095
:10184000000E2ABEFF0E2B6E2C6ED890AE35D96ED0
:10185000AF35DA6E1650D9261750DA226F0078FFAE
:101860002DF06F0074FF2EF02DC02FF02EC030F041
:10187000000E30BEFF0E316E326E29502F240A6EDC
:101880002A5030200B6E2B5031200C6E2C50322001
:101890000D6ED890AE35D96EAF35DA6E1850D926A8
:1018A0001950DA226F0078FF0EF06F0074FF0FF00E
:1018B000000E0FBEFF0E106E116EDAEC11F00A5022
:1018C0000001AA270B50AB230C50AC230D50AD23C5
:1018D000AE4BAF2B1C50AE5DAF51800A1F6E1D503A
:1018E000800A1F58D8A077EF0CF079EF0CF0F6EFD4
:1018F0000BF01E04D8A47FEF0CF081EF0CF0C8EFC2
:101900000CF01CC01FF01DC020F0D8901F362036F0
:101910001F501624216E20501720226EFE0E212407
:10192000D96EFF0E2220DA6E6F0078FF0AF06F008A
:1019300074FF0BF0000E0BBEFF0E0C6E0D6E1CC084
:1019400023F01DC024F0D8902336243623501824C9
:10195000256E24501920266EFE0E2524D96EFF0E0A
:101960002620DA6E6F0078FF0EF06F0074FF0FF024
:10197000000E0FBEFF0E106E116EDAEC11F00A5061
:101980000001AA5F0B50AB5B0C50AC5B0D50AD5B24
:10199000ACC016F0ADC017F01200000E1A6E14EFB6
:1019A0000DF01A501424166E000E1520176E6000EC
:1019B0005BF0F6FF60005FF0F7FF000EF86E20EEC0
:1019C00064F01250D9261350DA226F0078FF18F015
:1019D0006F0074FF19F0600063F0D9FF600067F0DA
:1019E000DAFF0F0EF76403D00800F55007D06F0040
:1019F000DBFFE9FF6F00DFFFEAFFEF50DF6E1A2A1F
:101A000012C00AF013C00BF0640E12240C6E000E0C
:101A100013200D6E0FEC12F020EE68F01250D92654
:101A20001350DA22010EDF6E20EE66F01250D92636
:101A30001350DA2210EE64F01250E1261350E22225
:101A4000DE50E61807E1DE50E618D8A42AEF0DF0C4
:101A50002CEF0DF03AEF0DF020EE69F01250D92680
:101A60001350DA22DF50D8B438EF0DF03AEF0DF012
:101A70005DEF0DF01A501424166E000E1520176E2F
:101A800060005BF0F6FF60005FF0F7FF000EF86E9D
:101A90000F0EF76403D00800F55007D06F00DBFF8E
:101AA000E9FF6F00DFFFEAFFEF500009D8A45BEF0A
:101AB0000DF05DEF0DF0D1EF0CF020EE66F012505E
:101AC000D9261350DA2210EE64F01250E12613509A
:101AD000E222DE50E61807E1DE50E618D8A473EFE4
:101AE0000DF075EF0DF08AEF0DF020EE69F0125059
:101AF000D9261350DA22DE04D8A481EF0DF083EF4B
:101B00000DF08AEF0DF020EE69F01250D926135037
:101B1000DA22DF6A120004EF0EF0BD8C000E000125
:101B2000936F000E926F700E3FEC12F0374A382A16
:101B30003EEF0EF0720E3FEC12F096EF0DF0690ED4
:101B40003FEC12F096EF0DF06E0E3FEC12F096EFB8
:101B50000DF0740E3FEC12F096EF0DF0200E3FECFE
:101B600012F096EF0DF0640E3FEC12F096EF0DF0D0
:101B7000700E3FEC12F096EF0DF0FF0E3FEC12F0FE
:101B800096EF0DF0FF0E3FEC12F096EF0DF0FF0E0A
:101B90003FEC12F0BD9C000E0001976F000E966F97
:101BA00060056111D8B4D7EF0DF0D9EF0DF0F4EF67
:101BB0000DF062056311D8B4E0EF0DF0E2EF0DF027
:101BC000F4EF0DF064056511D8B4E9EF0DF0EBEF1B
:101BD0000DF0F4EF0DF066056711D8A4F2EF0DF0EB
:101BE000F4EF0DF0FAEF0DF0000E3A6E010E396EC3
:101BF000FEEF0DF0000E936F010E926F000E386E27
:101C0000000E376E3EEF0EF037C00BF038C00CF010
:101C10000C50000AD8B40FEF0EF03EEF0EF00B5050
:101C2000000AD8B48DEF0DF0010AD8B49AEF0DF088
:101C3000030AD8B49FEF0DF0010AD8B4A4EF0DF059
:101C4000070AD8B4A9EF0DF0010AD8B4AEEF0DF031
:101C5000030AD8B4B3EF0DF0010AD8B4B8EF0DF011
:101C60000F0AD8B4BDEF0DF0010AD8B4C2EF0DF0E1
:101C7000030AD8B4C7EF0DF03EEF0EF01200200EAD
:101C8000186E20EE66F01250D9261350DA2210EEAC
:101C900064F01250E1261350E222DE50E61807E10C
:101CA000DE50E618D8A457EF0EF059EF0EF067EFAC
:101CB0000EF020EE69F01250D9261350DA22DF50D0
:101CC000D8A465EF0EF067EF0EF089EF0EF020EE6E
:101CD00066F01250D9261350DA226F0078FF14F004
:101CE0006F0074FF15F0600053F0D9FF600057F0EB
:101CF000DAFFDF50186E12C00AF013C00BF0660E48
:101D000012240C6E000E13200D6E0FEC12F090EFEB
:101D10000EF020EE68F01250D9261350DA22DF6A56
:101D200020EE66F01250D9261350DA2210EE64F03D
:101D30001250E1261350E222DE50E61807E1DE5091
:101D4000E618D8A4A6EF0EF0A8EF0EF0BEEF0EF046
:101D500020EE69F01250D9261350DA22DF50D8A4B1
:101D6000B4EF0EF0B6EF0EF0BEEF0EF020EE69F01D
:101D70001250D9261350DA22010EDF6E18501200CD
:101D80000B6E3D0114BFC7EF0EF0C9EF0EF02DEF43
:101D90000FF00B50050D010EF324F66E100EF4201B
:101DA000F76EF86A000EF82208006F00D7FF14FDE6
:101DB0000B50050D010EF326000EF422010EF32444
:101DC000F66E100EF420F76EF86A000EF822080086
:101DD0006F00D7FF15FD0B50050D020EF326000E08
:101DE000F422010EF324F66E100EF420F76EF86A5A
:101DF000000EF8220800F5500309166F0B50050D70
:101E0000030EF326000EF422010EF324F66E100EDC
:101E1000F420F76EF86A000EF82208006F00D7FF72
:101E200019FD0B50050D040EF326000EF422010ED1
:101E3000F324F66E100EF420F76EF86A000EF82206
:101E400008006F00D4FF0AF00A460A460A46C4504A
:101E50000A18F70B0A18C46E148F12003901A495E2
:101E600064EF0FF0BD8E040E57EC13F001C043F089
:101E700002C044F0435000018C2744508D23000ED3
:101E80008E23000E8F23010E466E81EF0FF0000EA1
:101E900057EC13F001C041F002C042F04150000184
:101EA000882742508923000E8A23000E8B23020EBE
:101EB000466E81EF0FF0BD9E030E466E81EF0FF070
:101EC000000E466E81EF0FF04650066E076A07500F
:101ED000000AD8B46EEF0FF081EF0FF00650000A41
:101EE000D8B432EF0FF0010AD8B447EF0FF0030A6D
:101EF000D8B45BEF0FF0010AD8B460EF0FF081EFB8
:101F00000FF040BE8AEF0FF04004D8A08AEF0FF028
:101F10008CEF0FF097EF0FF0000E0001A56F010E90
:101F2000A46F000E406E000E3F6E99EF0FF03F4A17
:101F3000402A12006F00E8FF08F06F00ECFF09F084
:101F4000390193A9A6EF0FF0A8EF0FF0BDEF0FF046
:101F5000A3A9ADEF0FF0AFEF0FF0BDEF0FF002D878
:101F6000BBEF0FF00500FA6E4E50FD6E4F50FE6E47
:101F7000FF6AFA501200FDEF0FF093A7C2EF0FF0C7
:101F8000C4EF0FF0D9EF0FF0A3A7C9EF0FF0CBEF1D
:101F90000FF0D9EF0FF002D8D7EF0FF00500FA6E6F
:101FA0005050FD6E5150FE6EFF6AFA501200FDEF68
:101FB0000FF097A1DEEF0FF0E0EF0FF0EBEF0FF077
:101FC000A7A1E5EF0FF0E7EF0FF0EBEF0FF016EC46
:101FD00014F0FDEF0FF094A5F0EF0FF0F2EF0FF01B
:101FE000FDEF0FF0A4A5F7EF0FF0F9EF0FF0FDEF05
:101FF0000FF02EEC0FF0FDEF0FF0600027F0FBFF6D
:10200000600023F0FAFF1100680E4A24D96EDA6AE4
:10201000000EDA22DF6A3D01F9A711EF10F013EF8D
:1020200010F027EF10F0680E4A24D96EDA6A000E1D
:10203000DA220001DF8202D827EF10F00500FA6EE5
:10204000B951FD6EBA51FE6EFF6AFA5012003D01A1
:10205000F9A32DEF10F02FEF10F043EF10F0680E02
:102060004A24D96EDA6A000EDA220001DF8402D82F
:1020700043EF10F00500FA6EB751FD6EB851FE6ED9
:10208000FF6AFA501200680E4A24D96EDA6A000E0E
:10209000DA22DF50D8B44FEF10F051EF10F060EFBC
:1020A00010F002D85EEF10F00500FA6E0001B55195
:1020B000FD6EB651FE6EFF6AFA50120062EF10F02C
:1020C0009CEC13F01200000EBE6E000EBD6E000EF2
:1020D000BA6E000EBB6E000EBC6E070EC66EC268F6
:1020E000C368930EC46E3F0EC56E3A017069670EE9
:1020F000606F5069070E806F4069000E716F000EAF
:10210000816F000E516F000E416F000E616F000E67
:102110005A6F000E5B6F000E6A6F000E6B6F000E41
:102120007A6F000E7B6F000E826F000E426F000E02
:10213000526F000E626F000E726F436953696369DC
:102140007369070E836F44695469646974690F0E7B
:10215000846F130EDE6F1E0E136F1F0E156F130E9E
:10216000166F170EE56F140EDF6F1200390193978B
:10217000080E0A6E200E0B6E23EC14F039019399B1
:102180002A0E0A6E260E0B6E1EEC14F0000E3D0198
:10219000EC6F000EED6F000EEE6F000EEF6F000E95
:1021A000F06F000EF16FB00EF26F800EF36F000E45
:1021B000F46F1E0EF56F000EF66F000EF76F000E37
:1021C000F86F000EF96F000EFA6F9E0E0A6E280E61
:1021D0000B6E2DEC14F09C0E0A6E280E0B6E28EC84
:1021E00014F08A0E0A6E280E0B6E32EC14F0000EFC
:1021F000476E000E4D6E000E4C6E080E4B6E000EBC
:102200004A6E000E496E000E486E39019387120027
:102210006E0EF66E260EF76E000EF86E00EEB7F13B
:1022200010EE40F009006F00D7FFEEFFE550E150DF
:10223000F9E1900EF66E280EF76E000EF86E00EEC5
:10224000BBF010EE05F009006F00D7FFEEFFE55080
:10225000E150F9E19A0EF66E280EF76E000EF86E58
:1022600009006F00D4FF52F009006F00D4FF53F053
:1022700000EE00F1B70EEE6AE806FDE100EE60F058
:102280004A0EEE6AE806FDE100EE33F01B0EEE6A40
:10229000E806FDE1080ED56E000ED66E000ED76E74
:1022A000000111EF08F0226E20EEB7F110EE0CF0F5
:1022B0000F0E6F006FFFE3FFE806FBE20A50D8B491
:1022C00064EF11F066EF11F06CEF11F0000E1F6E6D
:1022D000F00E1E6E70EF11F0000E1F6E0F0E1E6ED0
:1022E0001EC023F00A50D8B478EF11F07AEF11F045
:1022F00085EF11F0225023140B6E0B3A0F0E0B16C4
:102300000B50206E216A8BEF11F0225023140B6EBC
:102310000B50206E216A20C01DF00C0E1D24D96EBA
:10232000DA6A000EDA22DF501C6E1C5012000CC05C
:102330000EF00DC00FF0D8900E360F360E500A2456
:10234000106E0F500B20116EFC0E1024126EFF0E3B
:102350001120136EFE0E0C24146EFF0E0D20156E50
:1023600015BEB7EF11F0B5EF11F0B9EF11F0D9EFDD
:1023700011F060004BF0D9FF60004FF0DAFF10EE73
:1023800002F01250E1261350E2226F007BFFE6FFBD
:102390006F0077FFE5FF020E125E000E135A14065F
:1023A000D8A0150615BED9EF11F0D7EF11F0B9EF8F
:1023B00011F01200000E126E000E136E000E146E5D
:1023C000000E156E0AA0E7EF11F0E9EF11F0F1EF42
:1023D00011F00E5012260F501322105014221150DB
:1023E0001522D8900E360F3610361136D8900D3291
:1023F0000C320B320A320A500B100C100D10D8A4FC
:1024000004EF12F006EF12F0E2EF11F012C00AF042
:1024100013C00BF014C00CF015C00DF01200630EC9
:102420000A240E6E000E0B200F6E600033F0D9FFF1
:10243000600037F0DAFF0E50DE1807E10F50DE18AB
:10244000D8A425EF12F027EF12F035EF12F060005C
:1024500033F0D9FF600037F0DAFF60002BF0DEFFC9
:1024600060002FF0DDFF3EEF12F0600033F0D9FF87
:10247000600037F0DAFFDE2A000EDD2212000A6E5D
:102480004B50D8B446EF12F048EF12F040EF12F084
:10249000390193B94EEF12F050EF12F055EF12F0F0
:1024A00060002BF0EAFD6BEF12F09399780E4D244B
:1024B000D96EDA6A000EDA2260002BF0DFFF4D2AB7
:1024C000070E4D6466EF12F068EF12F06AEF12F03B
:1024D000000E4D6E4B0693891200000E3E01DE6F1A
:1024E000000EDF6F000EE06F000EE16F000EE46F74
:1024F000000EE56F000EEA6F000EEC6F000EF16F3C
:10250000000EF36F000EF46F000EF56F000EF66F05
:10251000000EF76F010EF96F000EFA6F000EFB6FE1
:10252000000EFC6F030EFD6F000EFE6F1F0EFF6F9F
:10253000840EF86F1200000E126E000E116EB4EFD2
:1025400012F011500B240F6E12500C20106E600010
:102550003FF0F6FF600043F0F7FFF86A0800F5501F
:102560003FEC12F0114A122A0D50115C1250800AF1
:102570000F6E0E50800A0F58D8A0C1EF12F0C3EFB3
:1025800012F0A1EF12F012004850D8B4CAEF12F0C6
:10259000CCEF12F0C4EF12F0680E4924D96EDA6A5B
:1025A000000EDA22DF50476E700E4924D96EDA6AC7
:1025B000000EDA22DF500A6E492A070E4964E3EF63
:1025C00012F0E5EF12F0E7EF12F0000E496E39015C
:1025D0009397480693870A50120020EE64F00A5041
:1025E000D9260B50DA2260002BF0DEFF60002FF0BE
:1025F000DDFF20EE66F00A50D9260B50DA2260008B
:102600002BF0DEFF60002FF0DDFF20EE68F00A50B7
:10261000D9260B50DA22DF6A20EE69F00A50D9265B
:102620000B50DA22010EDF6E1200080E4B601BEF1A
:1026300013F01DEF13F034EF13F0780E4C24D96E25
:10264000DA6A000EDA22DF503D01EA6F4C2A070EEB
:102650004C642DEF13F02FEF13F031EF13F0000E59
:102660004C6E4B2A36EF13F039019399120030313A
:102670003233343536373839414243444546000019
:102680000C0094FF3CFD64FC1C0A302D704F704F11
:10269000302D1C0A64FC3CFD94FF0C00000000007F
:1026A0000C0094FF3CFD64FC1C0A302D704F056E3D
:1026B000600017F0F1FE3E01F88FF89DF881F8B147
:1026C00064EF13F066EF13F05FEF13F0F051046E58
:1026D000036AEF510324016E000E0420026E120003
:1026E000040EA26E000EA16E000EA36EF10E9F6E80
:1026F000000E9E6E3901A7919781000E0A6E000EA2
:102700000B6E37EC14F0C70EA06E1200010EAE6E09
:10271000000EAD6E000EAF6EC70EAB6E000EAA6E51
:102720003901A4959485000E0A6E000E0B6E3CECE8
:1027300014F0A00EAC6E1200700E4A24D96EDA6A44
:10274000000EDA226F00A3F7DFFF4A2A070E4A6461
:10275000ACEF13F0AEEF13F0B0EF13F0000E4A6ED3
:10276000482A12004BEC14F0C7EC13F063EC10F0A5
:10277000F8EC13F041EC14F06DEC12F070EC13F087
:1027800086EC13F0B6EC10F0EBEC13F01200000E38
:102790003901C06F000EC16F000EC26F000EC36F13
:1027A000000EC46F000EC56F000EC66F000EC76F1F
:1027B00012000A6E010E3D01126F60002BF011FD38
:1027C0003901A2A9E6EF13F0E8EF13F0E0EF13F000
:1027D0003D0110511200020E3D01146F400E156FA5
:1027E000000E166F000E1C6F030E196FC4961200B8
:1027F000600E3901D96F000EDB6F000EDD6F080E21
:10280000DF6F000EDE6F1200FF0E3FEC12F0FF0EC6
:102810003FEC12F0FF0E3FEC12F0120020EE68F0D9
:102820000A50D9260B50DA22DF5012003901A79145
:10283000000E0001976F010E966F12000AC04EF055
:102840000BC04FF012000AC050F00BC051F0120044
:102850000AC0B7F00BC0B8F012000AC0B9F00BC044
:10286000BAF012000AC0B5F00BC0B6F012000AC0F0
:10287000F7F10BC0F8F112000AC0F9F10BC0FAF140
:1028800012008A0E3E01C16F12009CEC13F0120080
:0528900003FFFFFF0043
:0A289600D29A12004D011200120048
:020000040020DA
:10000000FFFFFFFFFFFFFFFFFFFFFFFFFFFFFFFF00
:020000040030CA
:0A0000008CFFF7FF9FFFFFFFFFFFDB
:00000001FF
