:040000000DEF00F010
:0400080031EF0AF0DA
:06001800FF0043EF0AF0B7
:0710000000024000030000A4
:101008003901A49550EF08F0BD8E000ECBEC09F025
:1010180017C013F018C014F0000E13241C6EF80E3D
:1010280014201D6E1C5005261D500622000E072296
:10103800000E0822010E156E6DEF08F0000ECBECC5
:1010480009F017C011F018C012F0000E11241C6E20
:10105800F80E12201D6E1C5001261D500222000E93
:101068000322000E0422020E156E6DEF08F0BD9EDD
:1010780014505FEC0AF013505FEC0AF0030E156E83
:101088006DEF08F012505FEC0AF011505FEC0AF0B7
:10109800000E156E6DEF08F015501C6E1D6A1D5080
:1010A800000AD8B45AEF08F06DEF08F01C50000A97
:1010B800D8B408EF08F0010AD8B422EF08F0030A00
:1010C800D8B43BEF08F0010AD8B446EF08F06DEF4A
:1010D80008F00EBE79EF08F00E5009E13F0E0D5CE6
:1010E800D8A079EF08F07BEF08F085EF08F0000E44
:1010F800106E010E0F6E000E0E6E000E0D6E87EF55
:1011080008F00D4A0E2A12001F6E3D0114BF8FEF22
:1011180008F091EF08F0F5EF08F01F50050D010EEB
:10112800F324F66E100EF420F76EF86A000EF8221B
:1011380008006F00D7FF14FD1F50050D010EF326A0
:10114800000EF422010EF324F66E100EF420F76E52
:10115800F86A000EF82208006F00D7FF15FD1F502F
:10116800050D020EF326000EF422010EF324F66E8E
:10117800100EF420F76EF86A000EF8220800F550F9
:101188000309166F1F50050D030EF326000EF422F7
:10119800010EF324F66E100EF420F76EF86A000EB6
:1011A800F82208006F00D7FF19FD1F50050D040E27
:1011B800F326000EF422010EF324F66E100EF4202E
:1011C800F76EF86A000EF82208006F00D4FF1EF0D0
:1011D8001E461E461E46C4501E18F70B1E18C46E27
:1011E800148F1200000EBE6E000EBD6E000EBA6E99
:1011F800000EBB6E000EBC6E070EC66EC268C368DA
:10120800930EC46E7F0EC56E3A017069670E606FEB
:101218005069070E806F4069000E716F000E816F74
:10122800000E516F000E416F000E616F000E5A6F75
:10123800000E5B6F000E6A6F000E6B6F000E7A6F08
:10124800000E7B6F000E826F000E426F000E526F11
:10125800000E626F000E726F4369536963697369A8
:10126800070E836F44695469646974690F0E846F4B
:10127800130EDE6F1E0E136F1F0E156F130E166FF3
:10128800170EE56F140EDF6F1200000E3D01EC6FB4
:10129800000EED6F000EEE6F000EEF6F000EF06F98
:1012A800000EF16FB00EF26F800EF36F000EF46F48
:1012B800070EF56F000EF66F000EF76F000EF86F51
:1012C800000EF96F000EFA6F000E1E6E000E1F6EF4
:1012D8007DEC0AF0000E1E6E000E1F6E78EC0AF010
:1012E800000E1E6E000E1F6E82EC0AF0000E166EC7
:1012F8001200000E3E01DE6F000EDF6F000EE06F81
:10130800000EE16F000EE46F000EE56F000EEA6F4D
:10131800000EEC6F000EF16F000EF36F000EF46F0D
:10132800000EF56F000EF66F000EF76F000EF96FE6
:10133800000EFA6F000EFB6F000EFC6F030EFD6FC0
:10134800000EFE6F070EFF6F840EF86F1200FAECA6
:1013580009F0D28E000E88EC08F0BC84BC94400ED4
:101368001FEC0AF0070E1FEC0AF0BC840F041010E3
:10137800D8A4C1EF09F0C3EF09F0BAEF09F0000EE5
:10138800106E000E0F6EBAEF09F00DEF00F01B6E35
:1013980060006FF0F1FE3E01F88FF89DF881F8B11A
:1013A800D8EF09F0DAEF09F0D3EF09F0F0511A6E2F
:1013B800196AEF511924176E000E1A20186E1200C0
:1013C800010EAE6E000EAD6E000EAF6E630EAB6E0C
:1013D800000EAA6E3901A4959485000E1E6E000EAB
:1013E8001F6E87EC0AF0900EAC6E120090EC0AF0BB
:1013F8000DEC0AF0F6EC08F06CEC0AF08CEC0AF054
:101408007DEC09F0E4EC09F049EC09F052EC0AF043
:101418001200000E3901C06F000EC16F000EC26FBE
:10142800000EC36F000EC46F000EC56F000EC66FAE
:10143800000EC76F12001E6E010E3D01126F600094
:101448007BF011FD3901A2A92CEF0AF02EEF0AF06A
:1014580026EF0AF03D0110511200390194A537EF2B
:101468000AF039EF0AF042EF0AF0A4A53EEF0AF0BD
:1014780040EF0AF042EF0AF004EC08F0110000EE29
:1014880001F0160EEE6AE806FDE1080ED56E000EB4
:10149800D66E000ED76E0001ABEF09F0020E3D01CB
:1014A800146F400E156F000E166F000E1C6F030EA2
:1014B800196FC4961200176E3901A3A966EF0AF0D6
:1014C80068EF0AF060EF0AF060005FF0EAFD1200D2
:1014D800700E3901D96F000EDB6F000EDD6F020E42
:1014E800DF6F000EDE6F12001EC024F01FC025F053
:1014F80012001EC026F01FC027F012001EC022F0E6
:101508001FC023F012001EC020F01FC021F01200DF
:0C1518008A0E3E01C16F1200D29A120030
:020000040020DA
:10000000FFFFFFFFFFFFFFFFFFFFFFFFFFFFFFFF00
:020000040030CA
:0A000000FAFFF7FF9FFFFFFFFFFF6D
:00000001FF
